{
	"contracts/TicketingSystem.sol": {
		"TicketingSystem": {
			"abi": [
				{
					"inputs": [
						{
							"internalType": "uint256",
							"name": "_eventId",
							"type": "uint256"
						}
					],
					"name": "buyTicket",
					"outputs": [],
					"stateMutability": "payable",
					"type": "function"
				},
				{
					"inputs": [
						{
							"internalType": "string",
							"name": "_eventName",
							"type": "string"
						},
						{
							"internalType": "string",
							"name": "_eventLocation",
							"type": "string"
						},
						{
							"internalType": "uint256",
							"name": "_eventDate",
							"type": "uint256"
						},
						{
							"internalType": "uint256",
							"name": "_maxTickets",
							"type": "uint256"
						},
						{
							"internalType": "uint256",
							"name": "_ticketPrice",
							"type": "uint256"
						}
					],
					"name": "createEvent",
					"outputs": [],
					"stateMutability": "nonpayable",
					"type": "function"
				},
				{
					"inputs": [
						{
							"internalType": "uint256",
							"name": "",
							"type": "uint256"
						}
					],
					"name": "events",
					"outputs": [
						{
							"internalType": "string",
							"name": "eventName",
							"type": "string"
						},
						{
							"internalType": "string",
							"name": "eventLocation",
							"type": "string"
						},
						{
							"internalType": "uint256",
							"name": "eventDate",
							"type": "uint256"
						},
						{
							"internalType": "uint256",
							"name": "maxTickets",
							"type": "uint256"
						},
						{
							"internalType": "uint256",
							"name": "ticketPrice",
							"type": "uint256"
						},
						{
							"internalType": "address",
							"name": "eventOwner",
							"type": "address"
						},
						{
							"internalType": "uint256",
							"name": "ticketsSold",
							"type": "uint256"
						}
					],
					"stateMutability": "view",
					"type": "function"
				},
				{
					"inputs": [],
					"name": "nextEventId",
					"outputs": [
						{
							"internalType": "uint256",
							"name": "",
							"type": "uint256"
						}
					],
					"stateMutability": "view",
					"type": "function"
				},
				{
					"inputs": [],
					"name": "nextTicketId",
					"outputs": [
						{
							"internalType": "uint256",
							"name": "",
							"type": "uint256"
						}
					],
					"stateMutability": "view",
					"type": "function"
				},
				{
					"inputs": [
						{
							"internalType": "address",
							"name": "",
							"type": "address"
						},
						{
							"internalType": "uint256",
							"name": "",
							"type": "uint256"
						}
					],
					"name": "ownerTickets",
					"outputs": [
						{
							"internalType": "uint256",
							"name": "",
							"type": "uint256"
						}
					],
					"stateMutability": "view",
					"type": "function"
				},
				{
					"inputs": [
						{
							"internalType": "uint256",
							"name": "",
							"type": "uint256"
						}
					],
					"name": "tickets",
					"outputs": [
						{
							"internalType": "uint256",
							"name": "ticketId",
							"type": "uint256"
						},
						{
							"internalType": "address",
							"name": "owner",
							"type": "address"
						},
						{
							"internalType": "bool",
							"name": "isForSale",
							"type": "bool"
						}
					],
					"stateMutability": "view",
					"type": "function"
				}
			],
			"devdoc": {
				"kind": "dev",
				"methods": {},
				"version": 1
			},
			"evm": {
				"assembly": "    /* \"contracts/TicketingSystem.sol\":60:2395  contract TicketingSystem {... */\n  mstore(0x40, 0x80)\n    /* \"contracts/TicketingSystem.sol\":763:764  1 */\n  0x01\n    /* \"contracts/TicketingSystem.sol\":734:764  uint256 public nextEventId = 1 */\n  0x03\n  sstore\n    /* \"contracts/TicketingSystem.sol\":801:802  1 */\n  0x01\n    /* \"contracts/TicketingSystem.sol\":771:802  uint256 public nextTicketId = 1 */\n  0x04\n  sstore\n    /* \"contracts/TicketingSystem.sol\":60:2395  contract TicketingSystem {... */\n  callvalue\n  dup1\n  iszero\n  tag_1\n  jumpi\n  0x00\n  dup1\n  revert\ntag_1:\n  pop\n  dataSize(sub_0)\n  dup1\n  dataOffset(sub_0)\n  0x00\n  codecopy\n  0x00\n  return\nstop\n\nsub_0: assembly {\n        /* \"contracts/TicketingSystem.sol\":60:2395  contract TicketingSystem {... */\n      mstore(0x40, 0x80)\n      jumpi(tag_1, lt(calldatasize, 0x04))\n      shr(0xe0, calldataload(0x00))\n      dup1\n      0x6031a52f\n      gt\n      tag_9\n      jumpi\n      dup1\n      0x6031a52f\n      eq\n      tag_5\n      jumpi\n      dup1\n      0x67dd74ca\n      eq\n      tag_6\n      jumpi\n      dup1\n      0x9f9d903a\n      eq\n      tag_7\n      jumpi\n      dup1\n      0xf0ab716b\n      eq\n      tag_8\n      jumpi\n      jump(tag_1)\n    tag_9:\n      dup1\n      0x0b791430\n      eq\n      tag_2\n      jumpi\n      dup1\n      0x3c2fc56c\n      eq\n      tag_3\n      jumpi\n      dup1\n      0x50b44712\n      eq\n      tag_4\n      jumpi\n    tag_1:\n      0x00\n      dup1\n      revert\n        /* \"contracts/TicketingSystem.sol\":555:594  mapping(uint256 => Event) public events */\n    tag_2:\n      callvalue\n      dup1\n      iszero\n      tag_10\n      jumpi\n      0x00\n      dup1\n      revert\n    tag_10:\n      pop\n      tag_11\n      0x04\n      dup1\n      calldatasize\n      sub\n      dup2\n      add\n      swap1\n      tag_12\n      swap2\n      swap1\n      tag_13\n      jump\t// in\n    tag_12:\n      tag_14\n      jump\t// in\n    tag_11:\n      mload(0x40)\n      tag_15\n      swap8\n      swap7\n      swap6\n      swap5\n      swap4\n      swap3\n      swap2\n      swap1\n      tag_16\n      jump\t// in\n    tag_15:\n      mload(0x40)\n      dup1\n      swap2\n      sub\n      swap1\n      return\n        /* \"contracts/TicketingSystem.sol\":845:1556  function createEvent(... */\n    tag_3:\n      callvalue\n      dup1\n      iszero\n      tag_17\n      jumpi\n      0x00\n      dup1\n      revert\n    tag_17:\n      pop\n      tag_18\n      0x04\n      dup1\n      calldatasize\n      sub\n      dup2\n      add\n      swap1\n      tag_19\n      swap2\n      swap1\n      tag_20\n      jump\t// in\n    tag_19:\n      tag_21\n      jump\t// in\n    tag_18:\n      stop\n        /* \"contracts/TicketingSystem.sol\":601:642  mapping(uint256 => Ticket) public tickets */\n    tag_4:\n      callvalue\n      dup1\n      iszero\n      tag_22\n      jumpi\n      0x00\n      dup1\n      revert\n    tag_22:\n      pop\n      tag_23\n      0x04\n      dup1\n      calldatasize\n      sub\n      dup2\n      add\n      swap1\n      tag_24\n      swap2\n      swap1\n      tag_13\n      jump\t// in\n    tag_24:\n      tag_25\n      jump\t// in\n    tag_23:\n      mload(0x40)\n      tag_26\n      swap4\n      swap3\n      swap2\n      swap1\n      tag_27\n      jump\t// in\n    tag_26:\n      mload(0x40)\n      dup1\n      swap2\n      sub\n      swap1\n      return\n        /* \"contracts/TicketingSystem.sol\":771:802  uint256 public nextTicketId = 1 */\n    tag_5:\n      callvalue\n      dup1\n      iszero\n      tag_28\n      jumpi\n      0x00\n      dup1\n      revert\n    tag_28:\n      pop\n      tag_29\n      tag_30\n      jump\t// in\n    tag_29:\n      mload(0x40)\n      tag_31\n      swap2\n      swap1\n      tag_32\n      jump\t// in\n    tag_31:\n      mload(0x40)\n      dup1\n      swap2\n      sub\n      swap1\n      return\n        /* \"contracts/TicketingSystem.sol\":1607:2392  function buyTicket(uint256 _eventId) public payable {... */\n    tag_6:\n      tag_33\n      0x04\n      dup1\n      calldatasize\n      sub\n      dup2\n      add\n      swap1\n      tag_34\n      swap2\n      swap1\n      tag_13\n      jump\t// in\n    tag_34:\n      tag_35\n      jump\t// in\n    tag_33:\n      stop\n        /* \"contracts/TicketingSystem.sol\":734:764  uint256 public nextEventId = 1 */\n    tag_7:\n      callvalue\n      dup1\n      iszero\n      tag_36\n      jumpi\n      0x00\n      dup1\n      revert\n    tag_36:\n      pop\n      tag_37\n      tag_38\n      jump\t// in\n    tag_37:\n      mload(0x40)\n      tag_39\n      swap2\n      swap1\n      tag_32\n      jump\t// in\n    tag_39:\n      mload(0x40)\n      dup1\n      swap2\n      sub\n      swap1\n      return\n        /* \"contracts/TicketingSystem.sol\":649:698  mapping(address => uint256[]) public ownerTickets */\n    tag_8:\n      callvalue\n      dup1\n      iszero\n      tag_40\n      jumpi\n      0x00\n      dup1\n      revert\n    tag_40:\n      pop\n      tag_41\n      0x04\n      dup1\n      calldatasize\n      sub\n      dup2\n      add\n      swap1\n      tag_42\n      swap2\n      swap1\n      tag_43\n      jump\t// in\n    tag_42:\n      tag_44\n      jump\t// in\n    tag_41:\n      mload(0x40)\n      tag_45\n      swap2\n      swap1\n      tag_32\n      jump\t// in\n    tag_45:\n      mload(0x40)\n      dup1\n      swap2\n      sub\n      swap1\n      return\n        /* \"contracts/TicketingSystem.sol\":555:594  mapping(uint256 => Event) public events */\n    tag_14:\n      mstore(0x20, 0x00)\n      dup1\n      0x00\n      mstore\n      keccak256(0x00, 0x40)\n      0x00\n      swap2\n      pop\n      swap1\n      pop\n      dup1\n      0x00\n      add\n      dup1\n      sload\n      tag_46\n      swap1\n      tag_47\n      jump\t// in\n    tag_46:\n      dup1\n      0x1f\n      add\n      0x20\n      dup1\n      swap2\n      div\n      mul\n      0x20\n      add\n      mload(0x40)\n      swap1\n      dup2\n      add\n      0x40\n      mstore\n      dup1\n      swap3\n      swap2\n      swap1\n      dup2\n      dup2\n      mstore\n      0x20\n      add\n      dup3\n      dup1\n      sload\n      tag_48\n      swap1\n      tag_47\n      jump\t// in\n    tag_48:\n      dup1\n      iszero\n      tag_49\n      jumpi\n      dup1\n      0x1f\n      lt\n      tag_50\n      jumpi\n      0x0100\n      dup1\n      dup4\n      sload\n      div\n      mul\n      dup4\n      mstore\n      swap2\n      0x20\n      add\n      swap2\n      jump(tag_49)\n    tag_50:\n      dup3\n      add\n      swap2\n      swap1\n      0x00\n      mstore\n      keccak256(0x00, 0x20)\n      swap1\n    tag_51:\n      dup2\n      sload\n      dup2\n      mstore\n      swap1\n      0x01\n      add\n      swap1\n      0x20\n      add\n      dup1\n      dup4\n      gt\n      tag_51\n      jumpi\n      dup3\n      swap1\n      sub\n      0x1f\n      and\n      dup3\n      add\n      swap2\n    tag_49:\n      pop\n      pop\n      pop\n      pop\n      pop\n      swap1\n      dup1\n      0x01\n      add\n      dup1\n      sload\n      tag_52\n      swap1\n      tag_47\n      jump\t// in\n    tag_52:\n      dup1\n      0x1f\n      add\n      0x20\n      dup1\n      swap2\n      div\n      mul\n      0x20\n      add\n      mload(0x40)\n      swap1\n      dup2\n      add\n      0x40\n      mstore\n      dup1\n      swap3\n      swap2\n      swap1\n      dup2\n      dup2\n      mstore\n      0x20\n      add\n      dup3\n      dup1\n      sload\n      tag_53\n      swap1\n      tag_47\n      jump\t// in\n    tag_53:\n      dup1\n      iszero\n      tag_54\n      jumpi\n      dup1\n      0x1f\n      lt\n      tag_55\n      jumpi\n      0x0100\n      dup1\n      dup4\n      sload\n      div\n      mul\n      dup4\n      mstore\n      swap2\n      0x20\n      add\n      swap2\n      jump(tag_54)\n    tag_55:\n      dup3\n      add\n      swap2\n      swap1\n      0x00\n      mstore\n      keccak256(0x00, 0x20)\n      swap1\n    tag_56:\n      dup2\n      sload\n      dup2\n      mstore\n      swap1\n      0x01\n      add\n      swap1\n      0x20\n      add\n      dup1\n      dup4\n      gt\n      tag_56\n      jumpi\n      dup3\n      swap1\n      sub\n      0x1f\n      and\n      dup3\n      add\n      swap2\n    tag_54:\n      pop\n      pop\n      pop\n      pop\n      pop\n      swap1\n      dup1\n      0x02\n      add\n      sload\n      swap1\n      dup1\n      0x03\n      add\n      sload\n      swap1\n      dup1\n      0x04\n      add\n      sload\n      swap1\n      dup1\n      0x05\n      add\n      0x00\n      swap1\n      sload\n      swap1\n      0x0100\n      exp\n      swap1\n      div\n      0xffffffffffffffffffffffffffffffffffffffff\n      and\n      swap1\n      dup1\n      0x06\n      add\n      sload\n      swap1\n      pop\n      dup8\n      jump\t// out\n        /* \"contracts/TicketingSystem.sol\":845:1556  function createEvent(... */\n    tag_21:\n        /* \"contracts/TicketingSystem.sol\":1077:1078  0 */\n      0x00\n        /* \"contracts/TicketingSystem.sol\":1063:1074  _maxTickets */\n      dup3\n        /* \"contracts/TicketingSystem.sol\":1063:1078  _maxTickets > 0 */\n      gt\n        /* \"contracts/TicketingSystem.sol\":1055:1117  require(_maxTickets > 0, \"Broj ulaznica mora biti veci od 0.\") */\n      tag_58\n      jumpi\n      mload(0x40)\n      0x08c379a000000000000000000000000000000000000000000000000000000000\n      dup2\n      mstore\n      0x04\n      add\n      tag_59\n      swap1\n      tag_60\n      jump\t// in\n    tag_59:\n      mload(0x40)\n      dup1\n      swap2\n      sub\n      swap1\n      revert\n    tag_58:\n        /* \"contracts/TicketingSystem.sol\":1151:1152  0 */\n      0x00\n        /* \"contracts/TicketingSystem.sol\":1136:1148  _ticketPrice */\n      dup2\n        /* \"contracts/TicketingSystem.sol\":1136:1152  _ticketPrice > 0 */\n      gt\n        /* \"contracts/TicketingSystem.sol\":1128:1193  require(_ticketPrice > 0, \"Cijena ulaznice mora biti veca od 0.\") */\n      tag_61\n      jumpi\n      mload(0x40)\n      0x08c379a000000000000000000000000000000000000000000000000000000000\n      dup2\n      mstore\n      0x04\n      add\n      tag_62\n      swap1\n      tag_63\n      jump\t// in\n    tag_62:\n      mload(0x40)\n      dup1\n      swap2\n      sub\n      swap1\n      revert\n    tag_61:\n        /* \"contracts/TicketingSystem.sol\":1236:1514  Event({... */\n      mload(0x40)\n      dup1\n      0xe0\n      add\n      0x40\n      mstore\n      dup1\n        /* \"contracts/TicketingSystem.sol\":1268:1278  _eventName */\n      dup7\n        /* \"contracts/TicketingSystem.sol\":1236:1514  Event({... */\n      dup2\n      mstore\n      0x20\n      add\n        /* \"contracts/TicketingSystem.sol\":1308:1322  _eventLocation */\n      dup6\n        /* \"contracts/TicketingSystem.sol\":1236:1514  Event({... */\n      dup2\n      mstore\n      0x20\n      add\n        /* \"contracts/TicketingSystem.sol\":1348:1358  _eventDate */\n      dup5\n        /* \"contracts/TicketingSystem.sol\":1236:1514  Event({... */\n      dup2\n      mstore\n      0x20\n      add\n        /* \"contracts/TicketingSystem.sol\":1385:1396  _maxTickets */\n      dup4\n        /* \"contracts/TicketingSystem.sol\":1236:1514  Event({... */\n      dup2\n      mstore\n      0x20\n      add\n        /* \"contracts/TicketingSystem.sol\":1424:1436  _ticketPrice */\n      dup3\n        /* \"contracts/TicketingSystem.sol\":1236:1514  Event({... */\n      dup2\n      mstore\n      0x20\n      add\n        /* \"contracts/TicketingSystem.sol\":1463:1473  msg.sender */\n      caller\n        /* \"contracts/TicketingSystem.sol\":1236:1514  Event({... */\n      0xffffffffffffffffffffffffffffffffffffffff\n      and\n      dup2\n      mstore\n      0x20\n      add\n        /* \"contracts/TicketingSystem.sol\":1501:1502  0 */\n      0x00\n        /* \"contracts/TicketingSystem.sol\":1236:1514  Event({... */\n      dup2\n      mstore\n      pop\n        /* \"contracts/TicketingSystem.sol\":1214:1220  events */\n      0x00\n        /* \"contracts/TicketingSystem.sol\":1214:1233  events[nextEventId] */\n      dup1\n        /* \"contracts/TicketingSystem.sol\":1221:1232  nextEventId */\n      sload(0x03)\n        /* \"contracts/TicketingSystem.sol\":1214:1233  events[nextEventId] */\n      dup2\n      mstore\n      0x20\n      add\n      swap1\n      dup2\n      mstore\n      0x20\n      add\n      0x00\n      keccak256\n        /* \"contracts/TicketingSystem.sol\":1214:1514  events[nextEventId] = Event({... */\n      0x00\n      dup3\n      add\n      mload\n      dup2\n      0x00\n      add\n      swap1\n      dup2\n      tag_64\n      swap2\n      swap1\n      tag_65\n      jump\t// in\n    tag_64:\n      pop\n      0x20\n      dup3\n      add\n      mload\n      dup2\n      0x01\n      add\n      swap1\n      dup2\n      tag_66\n      swap2\n      swap1\n      tag_65\n      jump\t// in\n    tag_66:\n      pop\n      0x40\n      dup3\n      add\n      mload\n      dup2\n      0x02\n      add\n      sstore\n      0x60\n      dup3\n      add\n      mload\n      dup2\n      0x03\n      add\n      sstore\n      0x80\n      dup3\n      add\n      mload\n      dup2\n      0x04\n      add\n      sstore\n      0xa0\n      dup3\n      add\n      mload\n      dup2\n      0x05\n      add\n      exp(0x0100, 0x00)\n      dup2\n      sload\n      dup2\n      0xffffffffffffffffffffffffffffffffffffffff\n      mul\n      not\n      and\n      swap1\n      dup4\n      0xffffffffffffffffffffffffffffffffffffffff\n      and\n      mul\n      or\n      swap1\n      sstore\n      pop\n      0xc0\n      dup3\n      add\n      mload\n      dup2\n      0x06\n      add\n      sstore\n      swap1\n      pop\n      pop\n        /* \"contracts/TicketingSystem.sol\":1535:1546  nextEventId */\n      0x03\n      0x00\n        /* \"contracts/TicketingSystem.sol\":1535:1548  nextEventId++ */\n      dup2\n      sload\n      dup1\n      swap3\n      swap2\n      swap1\n      tag_67\n      swap1\n      tag_68\n      jump\t// in\n    tag_67:\n      swap2\n      swap1\n      pop\n      sstore\n      pop\n        /* \"contracts/TicketingSystem.sol\":845:1556  function createEvent(... */\n      pop\n      pop\n      pop\n      pop\n      pop\n      jump\t// out\n        /* \"contracts/TicketingSystem.sol\":601:642  mapping(uint256 => Ticket) public tickets */\n    tag_25:\n      mstore(0x20, 0x01)\n      dup1\n      0x00\n      mstore\n      keccak256(0x00, 0x40)\n      0x00\n      swap2\n      pop\n      swap1\n      pop\n      dup1\n      0x00\n      add\n      sload\n      swap1\n      dup1\n      0x01\n      add\n      0x00\n      swap1\n      sload\n      swap1\n      0x0100\n      exp\n      swap1\n      div\n      0xffffffffffffffffffffffffffffffffffffffff\n      and\n      swap1\n      dup1\n      0x01\n      add\n      0x14\n      swap1\n      sload\n      swap1\n      0x0100\n      exp\n      swap1\n      div\n      0xff\n      and\n      swap1\n      pop\n      dup4\n      jump\t// out\n        /* \"contracts/TicketingSystem.sol\":771:802  uint256 public nextTicketId = 1 */\n    tag_30:\n      sload(0x04)\n      dup2\n      jump\t// out\n        /* \"contracts/TicketingSystem.sol\":1607:2392  function buyTicket(uint256 _eventId) public payable {... */\n    tag_35:\n        /* \"contracts/TicketingSystem.sol\":1670:1697  Event storage eventInstance */\n      0x00\n        /* \"contracts/TicketingSystem.sol\":1700:1706  events */\n      dup1\n        /* \"contracts/TicketingSystem.sol\":1700:1716  events[_eventId] */\n      0x00\n        /* \"contracts/TicketingSystem.sol\":1707:1715  _eventId */\n      dup4\n        /* \"contracts/TicketingSystem.sol\":1700:1716  events[_eventId] */\n      dup2\n      mstore\n      0x20\n      add\n      swap1\n      dup2\n      mstore\n      0x20\n      add\n      0x00\n      keccak256\n        /* \"contracts/TicketingSystem.sol\":1670:1716  Event storage eventInstance = events[_eventId] */\n      swap1\n      pop\n        /* \"contracts/TicketingSystem.sol\":1781:1782  0 */\n      0x00\n        /* \"contracts/TicketingSystem.sol\":1745:1783  eventInstance.eventOwner != address(0) */\n      0xffffffffffffffffffffffffffffffffffffffff\n      and\n        /* \"contracts/TicketingSystem.sol\":1745:1758  eventInstance */\n      dup2\n        /* \"contracts/TicketingSystem.sol\":1745:1769  eventInstance.eventOwner */\n      0x05\n      add\n      0x00\n      swap1\n      sload\n      swap1\n      0x0100\n      exp\n      swap1\n      div\n      0xffffffffffffffffffffffffffffffffffffffff\n      and\n        /* \"contracts/TicketingSystem.sol\":1745:1783  eventInstance.eventOwner != address(0) */\n      0xffffffffffffffffffffffffffffffffffffffff\n      and\n      sub\n        /* \"contracts/TicketingSystem.sol\":1737:1805  require(eventInstance.eventOwner != address(0), \"Event ne postoji.\") */\n      tag_70\n      jumpi\n      mload(0x40)\n      0x08c379a000000000000000000000000000000000000000000000000000000000\n      dup2\n      mstore\n      0x04\n      add\n      tag_71\n      swap1\n      tag_72\n      jump\t// in\n    tag_71:\n      mload(0x40)\n      dup1\n      swap2\n      sub\n      swap1\n      revert\n    tag_70:\n        /* \"contracts/TicketingSystem.sol\":1852:1865  eventInstance */\n      dup1\n        /* \"contracts/TicketingSystem.sol\":1852:1876  eventInstance.maxTickets */\n      0x03\n      add\n      sload\n        /* \"contracts/TicketingSystem.sol\":1824:1837  eventInstance */\n      dup2\n        /* \"contracts/TicketingSystem.sol\":1824:1849  eventInstance.ticketsSold */\n      0x06\n      add\n      sload\n        /* \"contracts/TicketingSystem.sol\":1824:1876  eventInstance.ticketsSold < eventInstance.maxTickets */\n      lt\n        /* \"contracts/TicketingSystem.sol\":1816:1905  require(eventInstance.ticketsSold < eventInstance.maxTickets, \"Nema dostupnih ulaznica.\") */\n      tag_73\n      jumpi\n      mload(0x40)\n      0x08c379a000000000000000000000000000000000000000000000000000000000\n      dup2\n      mstore\n      0x04\n      add\n      tag_74\n      swap1\n      tag_75\n      jump\t// in\n    tag_74:\n      mload(0x40)\n      dup1\n      swap2\n      sub\n      swap1\n      revert\n    tag_73:\n        /* \"contracts/TicketingSystem.sol\":1937:1950  eventInstance */\n      dup1\n        /* \"contracts/TicketingSystem.sol\":1937:1962  eventInstance.ticketPrice */\n      0x04\n      add\n      sload\n        /* \"contracts/TicketingSystem.sol\":1924:1933  msg.value */\n      callvalue\n        /* \"contracts/TicketingSystem.sol\":1924:1962  msg.value == eventInstance.ticketPrice */\n      eq\n        /* \"contracts/TicketingSystem.sol\":1916:1992  require(msg.value == eventInstance.ticketPrice, \"Pogresna cijena ulaznice.\") */\n      tag_76\n      jumpi\n      mload(0x40)\n      0x08c379a000000000000000000000000000000000000000000000000000000000\n      dup2\n      mstore\n      0x04\n      add\n      tag_77\n      swap1\n      tag_78\n      jump\t// in\n    tag_77:\n      mload(0x40)\n      dup1\n      swap2\n      sub\n      swap1\n      revert\n    tag_76:\n        /* \"contracts/TicketingSystem.sol\":2060:2179  Ticket({... */\n      mload(0x40)\n      dup1\n      0x60\n      add\n      0x40\n      mstore\n      dup1\n        /* \"contracts/TicketingSystem.sol\":2092:2104  nextTicketId */\n      sload(0x04)\n        /* \"contracts/TicketingSystem.sol\":2060:2179  Ticket({... */\n      dup2\n      mstore\n      0x20\n      add\n        /* \"contracts/TicketingSystem.sol\":2126:2136  msg.sender */\n      caller\n        /* \"contracts/TicketingSystem.sol\":2060:2179  Ticket({... */\n      0xffffffffffffffffffffffffffffffffffffffff\n      and\n      dup2\n      mstore\n      0x20\n      add\n        /* \"contracts/TicketingSystem.sol\":2162:2167  false */\n      0x00\n        /* \"contracts/TicketingSystem.sol\":2060:2179  Ticket({... */\n      iszero\n      iszero\n      dup2\n      mstore\n      pop\n        /* \"contracts/TicketingSystem.sol\":2036:2043  tickets */\n      0x01\n        /* \"contracts/TicketingSystem.sol\":2036:2057  tickets[nextTicketId] */\n      0x00\n        /* \"contracts/TicketingSystem.sol\":2044:2056  nextTicketId */\n      sload(0x04)\n        /* \"contracts/TicketingSystem.sol\":2036:2057  tickets[nextTicketId] */\n      dup2\n      mstore\n      0x20\n      add\n      swap1\n      dup2\n      mstore\n      0x20\n      add\n      0x00\n      keccak256\n        /* \"contracts/TicketingSystem.sol\":2036:2179  tickets[nextTicketId] = Ticket({... */\n      0x00\n      dup3\n      add\n      mload\n      dup2\n      0x00\n      add\n      sstore\n      0x20\n      dup3\n      add\n      mload\n      dup2\n      0x01\n      add\n      exp(0x0100, 0x00)\n      dup2\n      sload\n      dup2\n      0xffffffffffffffffffffffffffffffffffffffff\n      mul\n      not\n      and\n      swap1\n      dup4\n      0xffffffffffffffffffffffffffffffffffffffff\n      and\n      mul\n      or\n      swap1\n      sstore\n      pop\n      0x40\n      dup3\n      add\n      mload\n      dup2\n      0x01\n      add\n      exp(0x0100, 0x14)\n      dup2\n      sload\n      dup2\n      0xff\n      mul\n      not\n      and\n      swap1\n      dup4\n      iszero\n      iszero\n      mul\n      or\n      swap1\n      sstore\n      pop\n      swap1\n      pop\n      pop\n        /* \"contracts/TicketingSystem.sol\":2235:2247  ownerTickets */\n      0x02\n        /* \"contracts/TicketingSystem.sol\":2235:2259  ownerTickets[msg.sender] */\n      0x00\n        /* \"contracts/TicketingSystem.sol\":2248:2258  msg.sender */\n      caller\n        /* \"contracts/TicketingSystem.sol\":2235:2259  ownerTickets[msg.sender] */\n      0xffffffffffffffffffffffffffffffffffffffff\n      and\n      0xffffffffffffffffffffffffffffffffffffffff\n      and\n      dup2\n      mstore\n      0x20\n      add\n      swap1\n      dup2\n      mstore\n      0x20\n      add\n      0x00\n      keccak256\n        /* \"contracts/TicketingSystem.sol\":2265:2277  nextTicketId */\n      sload(0x04)\n        /* \"contracts/TicketingSystem.sol\":2235:2278  ownerTickets[msg.sender].push(nextTicketId) */\n      swap1\n      dup1\n      0x01\n      dup2\n      sload\n      add\n      dup1\n      dup3\n      sstore\n      dup1\n      swap2\n      pop\n      pop\n      0x01\n      swap1\n      sub\n      swap1\n      0x00\n      mstore\n      keccak256(0x00, 0x20)\n      add\n      0x00\n      swap1\n      swap2\n      swap1\n      swap2\n      swap1\n      swap2\n      pop\n      sstore\n        /* \"contracts/TicketingSystem.sol\":2332:2345  eventInstance */\n      dup1\n        /* \"contracts/TicketingSystem.sol\":2332:2357  eventInstance.ticketsSold */\n      0x06\n      add\n      0x00\n        /* \"contracts/TicketingSystem.sol\":2332:2359  eventInstance.ticketsSold++ */\n      dup2\n      sload\n      dup1\n      swap3\n      swap2\n      swap1\n      tag_80\n      swap1\n      tag_68\n      jump\t// in\n    tag_80:\n      swap2\n      swap1\n      pop\n      sstore\n      pop\n        /* \"contracts/TicketingSystem.sol\":2370:2382  nextTicketId */\n      0x04\n      0x00\n        /* \"contracts/TicketingSystem.sol\":2370:2384  nextTicketId++ */\n      dup2\n      sload\n      dup1\n      swap3\n      swap2\n      swap1\n      tag_81\n      swap1\n      tag_68\n      jump\t// in\n    tag_81:\n      swap2\n      swap1\n      pop\n      sstore\n      pop\n        /* \"contracts/TicketingSystem.sol\":1659:2392  {... */\n      pop\n        /* \"contracts/TicketingSystem.sol\":1607:2392  function buyTicket(uint256 _eventId) public payable {... */\n      pop\n      jump\t// out\n        /* \"contracts/TicketingSystem.sol\":734:764  uint256 public nextEventId = 1 */\n    tag_38:\n      sload(0x03)\n      dup2\n      jump\t// out\n        /* \"contracts/TicketingSystem.sol\":649:698  mapping(address => uint256[]) public ownerTickets */\n    tag_44:\n      mstore(0x20, 0x02)\n      dup2\n      0x00\n      mstore\n      keccak256(0x00, 0x40)\n      dup2\n      dup2\n      sload\n      dup2\n      lt\n      tag_82\n      jumpi\n      0x00\n      dup1\n      revert\n    tag_82:\n      swap1\n      0x00\n      mstore\n      keccak256(0x00, 0x20)\n      add\n      0x00\n      swap2\n      pop\n      swap2\n      pop\n      pop\n      sload\n      dup2\n      jump\t// out\n        /* \"#utility.yul\":7:82   */\n    tag_84:\n        /* \"#utility.yul\":40:46   */\n      0x00\n        /* \"#utility.yul\":73:75   */\n      0x40\n        /* \"#utility.yul\":67:76   */\n      mload\n        /* \"#utility.yul\":57:76   */\n      swap1\n      pop\n        /* \"#utility.yul\":7:82   */\n      swap1\n      jump\t// out\n        /* \"#utility.yul\":88:205   */\n    tag_85:\n        /* \"#utility.yul\":197:198   */\n      0x00\n        /* \"#utility.yul\":194:195   */\n      dup1\n        /* \"#utility.yul\":187:199   */\n      revert\n        /* \"#utility.yul\":211:328   */\n    tag_86:\n        /* \"#utility.yul\":320:321   */\n      0x00\n        /* \"#utility.yul\":317:318   */\n      dup1\n        /* \"#utility.yul\":310:322   */\n      revert\n        /* \"#utility.yul\":334:411   */\n    tag_87:\n        /* \"#utility.yul\":371:378   */\n      0x00\n        /* \"#utility.yul\":400:405   */\n      dup2\n        /* \"#utility.yul\":389:405   */\n      swap1\n      pop\n        /* \"#utility.yul\":334:411   */\n      swap2\n      swap1\n      pop\n      jump\t// out\n        /* \"#utility.yul\":417:539   */\n    tag_88:\n        /* \"#utility.yul\":490:514   */\n      tag_145\n        /* \"#utility.yul\":508:513   */\n      dup2\n        /* \"#utility.yul\":490:514   */\n      tag_87\n      jump\t// in\n    tag_145:\n        /* \"#utility.yul\":483:488   */\n      dup2\n        /* \"#utility.yul\":480:515   */\n      eq\n        /* \"#utility.yul\":470:533   */\n      tag_146\n      jumpi\n        /* \"#utility.yul\":529:530   */\n      0x00\n        /* \"#utility.yul\":526:527   */\n      dup1\n        /* \"#utility.yul\":519:531   */\n      revert\n        /* \"#utility.yul\":470:533   */\n    tag_146:\n        /* \"#utility.yul\":417:539   */\n      pop\n      jump\t// out\n        /* \"#utility.yul\":545:684   */\n    tag_89:\n        /* \"#utility.yul\":591:596   */\n      0x00\n        /* \"#utility.yul\":629:635   */\n      dup2\n        /* \"#utility.yul\":616:636   */\n      calldataload\n        /* \"#utility.yul\":607:636   */\n      swap1\n      pop\n        /* \"#utility.yul\":645:678   */\n      tag_148\n        /* \"#utility.yul\":672:677   */\n      dup2\n        /* \"#utility.yul\":645:678   */\n      tag_88\n      jump\t// in\n    tag_148:\n        /* \"#utility.yul\":545:684   */\n      swap3\n      swap2\n      pop\n      pop\n      jump\t// out\n        /* \"#utility.yul\":690:1019   */\n    tag_13:\n        /* \"#utility.yul\":749:755   */\n      0x00\n        /* \"#utility.yul\":798:800   */\n      0x20\n        /* \"#utility.yul\":786:795   */\n      dup3\n        /* \"#utility.yul\":777:784   */\n      dup5\n        /* \"#utility.yul\":773:796   */\n      sub\n        /* \"#utility.yul\":769:801   */\n      slt\n        /* \"#utility.yul\":766:885   */\n      iszero\n      tag_150\n      jumpi\n        /* \"#utility.yul\":804:883   */\n      tag_151\n      tag_85\n      jump\t// in\n    tag_151:\n        /* \"#utility.yul\":766:885   */\n    tag_150:\n        /* \"#utility.yul\":924:925   */\n      0x00\n        /* \"#utility.yul\":949:1002   */\n      tag_152\n        /* \"#utility.yul\":994:1001   */\n      dup5\n        /* \"#utility.yul\":985:991   */\n      dup3\n        /* \"#utility.yul\":974:983   */\n      dup6\n        /* \"#utility.yul\":970:992   */\n      add\n        /* \"#utility.yul\":949:1002   */\n      tag_89\n      jump\t// in\n    tag_152:\n        /* \"#utility.yul\":939:1002   */\n      swap2\n      pop\n        /* \"#utility.yul\":895:1012   */\n      pop\n        /* \"#utility.yul\":690:1019   */\n      swap3\n      swap2\n      pop\n      pop\n      jump\t// out\n        /* \"#utility.yul\":1025:1124   */\n    tag_90:\n        /* \"#utility.yul\":1077:1083   */\n      0x00\n        /* \"#utility.yul\":1111:1116   */\n      dup2\n        /* \"#utility.yul\":1105:1117   */\n      mload\n        /* \"#utility.yul\":1095:1117   */\n      swap1\n      pop\n        /* \"#utility.yul\":1025:1124   */\n      swap2\n      swap1\n      pop\n      jump\t// out\n        /* \"#utility.yul\":1130:1299   */\n    tag_91:\n        /* \"#utility.yul\":1214:1225   */\n      0x00\n        /* \"#utility.yul\":1248:1254   */\n      dup3\n        /* \"#utility.yul\":1243:1246   */\n      dup3\n        /* \"#utility.yul\":1236:1255   */\n      mstore\n        /* \"#utility.yul\":1288:1292   */\n      0x20\n        /* \"#utility.yul\":1283:1286   */\n      dup3\n        /* \"#utility.yul\":1279:1293   */\n      add\n        /* \"#utility.yul\":1264:1293   */\n      swap1\n      pop\n        /* \"#utility.yul\":1130:1299   */\n      swap3\n      swap2\n      pop\n      pop\n      jump\t// out\n        /* \"#utility.yul\":1305:1551   */\n    tag_92:\n        /* \"#utility.yul\":1386:1387   */\n      0x00\n        /* \"#utility.yul\":1396:1509   */\n    tag_156:\n        /* \"#utility.yul\":1410:1416   */\n      dup4\n        /* \"#utility.yul\":1407:1408   */\n      dup2\n        /* \"#utility.yul\":1404:1417   */\n      lt\n        /* \"#utility.yul\":1396:1509   */\n      iszero\n      tag_158\n      jumpi\n        /* \"#utility.yul\":1495:1496   */\n      dup1\n        /* \"#utility.yul\":1490:1493   */\n      dup3\n        /* \"#utility.yul\":1486:1497   */\n      add\n        /* \"#utility.yul\":1480:1498   */\n      mload\n        /* \"#utility.yul\":1476:1477   */\n      dup2\n        /* \"#utility.yul\":1471:1474   */\n      dup5\n        /* \"#utility.yul\":1467:1478   */\n      add\n        /* \"#utility.yul\":1460:1499   */\n      mstore\n        /* \"#utility.yul\":1432:1434   */\n      0x20\n        /* \"#utility.yul\":1429:1430   */\n      dup2\n        /* \"#utility.yul\":1425:1435   */\n      add\n        /* \"#utility.yul\":1420:1435   */\n      swap1\n      pop\n        /* \"#utility.yul\":1396:1509   */\n      jump(tag_156)\n    tag_158:\n        /* \"#utility.yul\":1543:1544   */\n      0x00\n        /* \"#utility.yul\":1534:1540   */\n      dup5\n        /* \"#utility.yul\":1529:1532   */\n      dup5\n        /* \"#utility.yul\":1525:1541   */\n      add\n        /* \"#utility.yul\":1518:1545   */\n      mstore\n        /* \"#utility.yul\":1367:1551   */\n      pop\n        /* \"#utility.yul\":1305:1551   */\n      pop\n      pop\n      pop\n      jump\t// out\n        /* \"#utility.yul\":1557:1659   */\n    tag_93:\n        /* \"#utility.yul\":1598:1604   */\n      0x00\n        /* \"#utility.yul\":1649:1651   */\n      0x1f\n        /* \"#utility.yul\":1645:1652   */\n      not\n        /* \"#utility.yul\":1640:1642   */\n      0x1f\n        /* \"#utility.yul\":1633:1638   */\n      dup4\n        /* \"#utility.yul\":1629:1643   */\n      add\n        /* \"#utility.yul\":1625:1653   */\n      and\n        /* \"#utility.yul\":1615:1653   */\n      swap1\n      pop\n        /* \"#utility.yul\":1557:1659   */\n      swap2\n      swap1\n      pop\n      jump\t// out\n        /* \"#utility.yul\":1665:2042   */\n    tag_94:\n        /* \"#utility.yul\":1753:1756   */\n      0x00\n        /* \"#utility.yul\":1781:1820   */\n      tag_161\n        /* \"#utility.yul\":1814:1819   */\n      dup3\n        /* \"#utility.yul\":1781:1820   */\n      tag_90\n      jump\t// in\n    tag_161:\n        /* \"#utility.yul\":1836:1907   */\n      tag_162\n        /* \"#utility.yul\":1900:1906   */\n      dup2\n        /* \"#utility.yul\":1895:1898   */\n      dup6\n        /* \"#utility.yul\":1836:1907   */\n      tag_91\n      jump\t// in\n    tag_162:\n        /* \"#utility.yul\":1829:1907   */\n      swap4\n      pop\n        /* \"#utility.yul\":1916:1981   */\n      tag_163\n        /* \"#utility.yul\":1974:1980   */\n      dup2\n        /* \"#utility.yul\":1969:1972   */\n      dup6\n        /* \"#utility.yul\":1962:1966   */\n      0x20\n        /* \"#utility.yul\":1955:1960   */\n      dup7\n        /* \"#utility.yul\":1951:1967   */\n      add\n        /* \"#utility.yul\":1916:1981   */\n      tag_92\n      jump\t// in\n    tag_163:\n        /* \"#utility.yul\":2006:2035   */\n      tag_164\n        /* \"#utility.yul\":2028:2034   */\n      dup2\n        /* \"#utility.yul\":2006:2035   */\n      tag_93\n      jump\t// in\n    tag_164:\n        /* \"#utility.yul\":2001:2004   */\n      dup5\n        /* \"#utility.yul\":1997:2036   */\n      add\n        /* \"#utility.yul\":1990:2036   */\n      swap2\n      pop\n        /* \"#utility.yul\":1757:2042   */\n      pop\n        /* \"#utility.yul\":1665:2042   */\n      swap3\n      swap2\n      pop\n      pop\n      jump\t// out\n        /* \"#utility.yul\":2048:2166   */\n    tag_95:\n        /* \"#utility.yul\":2135:2159   */\n      tag_166\n        /* \"#utility.yul\":2153:2158   */\n      dup2\n        /* \"#utility.yul\":2135:2159   */\n      tag_87\n      jump\t// in\n    tag_166:\n        /* \"#utility.yul\":2130:2133   */\n      dup3\n        /* \"#utility.yul\":2123:2160   */\n      mstore\n        /* \"#utility.yul\":2048:2166   */\n      pop\n      pop\n      jump\t// out\n        /* \"#utility.yul\":2172:2298   */\n    tag_96:\n        /* \"#utility.yul\":2209:2216   */\n      0x00\n        /* \"#utility.yul\":2249:2291   */\n      0xffffffffffffffffffffffffffffffffffffffff\n        /* \"#utility.yul\":2242:2247   */\n      dup3\n        /* \"#utility.yul\":2238:2292   */\n      and\n        /* \"#utility.yul\":2227:2292   */\n      swap1\n      pop\n        /* \"#utility.yul\":2172:2298   */\n      swap2\n      swap1\n      pop\n      jump\t// out\n        /* \"#utility.yul\":2304:2400   */\n    tag_97:\n        /* \"#utility.yul\":2341:2348   */\n      0x00\n        /* \"#utility.yul\":2370:2394   */\n      tag_169\n        /* \"#utility.yul\":2388:2393   */\n      dup3\n        /* \"#utility.yul\":2370:2394   */\n      tag_96\n      jump\t// in\n    tag_169:\n        /* \"#utility.yul\":2359:2394   */\n      swap1\n      pop\n        /* \"#utility.yul\":2304:2400   */\n      swap2\n      swap1\n      pop\n      jump\t// out\n        /* \"#utility.yul\":2406:2524   */\n    tag_98:\n        /* \"#utility.yul\":2493:2517   */\n      tag_171\n        /* \"#utility.yul\":2511:2516   */\n      dup2\n        /* \"#utility.yul\":2493:2517   */\n      tag_97\n      jump\t// in\n    tag_171:\n        /* \"#utility.yul\":2488:2491   */\n      dup3\n        /* \"#utility.yul\":2481:2518   */\n      mstore\n        /* \"#utility.yul\":2406:2524   */\n      pop\n      pop\n      jump\t// out\n        /* \"#utility.yul\":2530:3598   */\n    tag_16:\n        /* \"#utility.yul\":2831:2835   */\n      0x00\n        /* \"#utility.yul\":2869:2872   */\n      0xe0\n        /* \"#utility.yul\":2858:2867   */\n      dup3\n        /* \"#utility.yul\":2854:2873   */\n      add\n        /* \"#utility.yul\":2846:2873   */\n      swap1\n      pop\n        /* \"#utility.yul\":2919:2928   */\n      dup2\n        /* \"#utility.yul\":2913:2917   */\n      dup2\n        /* \"#utility.yul\":2909:2929   */\n      sub\n        /* \"#utility.yul\":2905:2906   */\n      0x00\n        /* \"#utility.yul\":2894:2903   */\n      dup4\n        /* \"#utility.yul\":2890:2907   */\n      add\n        /* \"#utility.yul\":2883:2930   */\n      mstore\n        /* \"#utility.yul\":2947:3025   */\n      tag_173\n        /* \"#utility.yul\":3020:3024   */\n      dup2\n        /* \"#utility.yul\":3011:3017   */\n      dup11\n        /* \"#utility.yul\":2947:3025   */\n      tag_94\n      jump\t// in\n    tag_173:\n        /* \"#utility.yul\":2939:3025   */\n      swap1\n      pop\n        /* \"#utility.yul\":3072:3081   */\n      dup2\n        /* \"#utility.yul\":3066:3070   */\n      dup2\n        /* \"#utility.yul\":3062:3082   */\n      sub\n        /* \"#utility.yul\":3057:3059   */\n      0x20\n        /* \"#utility.yul\":3046:3055   */\n      dup4\n        /* \"#utility.yul\":3042:3060   */\n      add\n        /* \"#utility.yul\":3035:3083   */\n      mstore\n        /* \"#utility.yul\":3100:3178   */\n      tag_174\n        /* \"#utility.yul\":3173:3177   */\n      dup2\n        /* \"#utility.yul\":3164:3170   */\n      dup10\n        /* \"#utility.yul\":3100:3178   */\n      tag_94\n      jump\t// in\n    tag_174:\n        /* \"#utility.yul\":3092:3178   */\n      swap1\n      pop\n        /* \"#utility.yul\":3188:3260   */\n      tag_175\n        /* \"#utility.yul\":3256:3258   */\n      0x40\n        /* \"#utility.yul\":3245:3254   */\n      dup4\n        /* \"#utility.yul\":3241:3259   */\n      add\n        /* \"#utility.yul\":3232:3238   */\n      dup9\n        /* \"#utility.yul\":3188:3260   */\n      tag_95\n      jump\t// in\n    tag_175:\n        /* \"#utility.yul\":3270:3342   */\n      tag_176\n        /* \"#utility.yul\":3338:3340   */\n      0x60\n        /* \"#utility.yul\":3327:3336   */\n      dup4\n        /* \"#utility.yul\":3323:3341   */\n      add\n        /* \"#utility.yul\":3314:3320   */\n      dup8\n        /* \"#utility.yul\":3270:3342   */\n      tag_95\n      jump\t// in\n    tag_176:\n        /* \"#utility.yul\":3352:3425   */\n      tag_177\n        /* \"#utility.yul\":3420:3423   */\n      0x80\n        /* \"#utility.yul\":3409:3418   */\n      dup4\n        /* \"#utility.yul\":3405:3424   */\n      add\n        /* \"#utility.yul\":3396:3402   */\n      dup7\n        /* \"#utility.yul\":3352:3425   */\n      tag_95\n      jump\t// in\n    tag_177:\n        /* \"#utility.yul\":3435:3508   */\n      tag_178\n        /* \"#utility.yul\":3503:3506   */\n      0xa0\n        /* \"#utility.yul\":3492:3501   */\n      dup4\n        /* \"#utility.yul\":3488:3507   */\n      add\n        /* \"#utility.yul\":3479:3485   */\n      dup6\n        /* \"#utility.yul\":3435:3508   */\n      tag_98\n      jump\t// in\n    tag_178:\n        /* \"#utility.yul\":3518:3591   */\n      tag_179\n        /* \"#utility.yul\":3586:3589   */\n      0xc0\n        /* \"#utility.yul\":3575:3584   */\n      dup4\n        /* \"#utility.yul\":3571:3590   */\n      add\n        /* \"#utility.yul\":3562:3568   */\n      dup5\n        /* \"#utility.yul\":3518:3591   */\n      tag_95\n      jump\t// in\n    tag_179:\n        /* \"#utility.yul\":2530:3598   */\n      swap9\n      swap8\n      pop\n      pop\n      pop\n      pop\n      pop\n      pop\n      pop\n      pop\n      jump\t// out\n        /* \"#utility.yul\":3604:3721   */\n    tag_99:\n        /* \"#utility.yul\":3713:3714   */\n      0x00\n        /* \"#utility.yul\":3710:3711   */\n      dup1\n        /* \"#utility.yul\":3703:3715   */\n      revert\n        /* \"#utility.yul\":3727:3844   */\n    tag_100:\n        /* \"#utility.yul\":3836:3837   */\n      0x00\n        /* \"#utility.yul\":3833:3834   */\n      dup1\n        /* \"#utility.yul\":3826:3838   */\n      revert\n        /* \"#utility.yul\":3850:4030   */\n    tag_101:\n        /* \"#utility.yul\":3898:3975   */\n      0x4e487b7100000000000000000000000000000000000000000000000000000000\n        /* \"#utility.yul\":3895:3896   */\n      0x00\n        /* \"#utility.yul\":3888:3976   */\n      mstore\n        /* \"#utility.yul\":3995:3999   */\n      0x41\n        /* \"#utility.yul\":3992:3993   */\n      0x04\n        /* \"#utility.yul\":3985:4000   */\n      mstore\n        /* \"#utility.yul\":4019:4023   */\n      0x24\n        /* \"#utility.yul\":4016:4017   */\n      0x00\n        /* \"#utility.yul\":4009:4024   */\n      revert\n        /* \"#utility.yul\":4036:4317   */\n    tag_102:\n        /* \"#utility.yul\":4119:4146   */\n      tag_184\n        /* \"#utility.yul\":4141:4145   */\n      dup3\n        /* \"#utility.yul\":4119:4146   */\n      tag_93\n      jump\t// in\n    tag_184:\n        /* \"#utility.yul\":4111:4117   */\n      dup2\n        /* \"#utility.yul\":4107:4147   */\n      add\n        /* \"#utility.yul\":4249:4255   */\n      dup2\n        /* \"#utility.yul\":4237:4247   */\n      dup2\n        /* \"#utility.yul\":4234:4256   */\n      lt\n        /* \"#utility.yul\":4213:4231   */\n      0xffffffffffffffff\n        /* \"#utility.yul\":4201:4211   */\n      dup3\n        /* \"#utility.yul\":4198:4232   */\n      gt\n        /* \"#utility.yul\":4195:4257   */\n      or\n        /* \"#utility.yul\":4192:4280   */\n      iszero\n      tag_185\n      jumpi\n        /* \"#utility.yul\":4260:4278   */\n      tag_186\n      tag_101\n      jump\t// in\n    tag_186:\n        /* \"#utility.yul\":4192:4280   */\n    tag_185:\n        /* \"#utility.yul\":4300:4310   */\n      dup1\n        /* \"#utility.yul\":4296:4298   */\n      0x40\n        /* \"#utility.yul\":4289:4311   */\n      mstore\n        /* \"#utility.yul\":4079:4317   */\n      pop\n        /* \"#utility.yul\":4036:4317   */\n      pop\n      pop\n      jump\t// out\n        /* \"#utility.yul\":4323:4452   */\n    tag_103:\n        /* \"#utility.yul\":4357:4363   */\n      0x00\n        /* \"#utility.yul\":4384:4404   */\n      tag_188\n      tag_84\n      jump\t// in\n    tag_188:\n        /* \"#utility.yul\":4374:4404   */\n      swap1\n      pop\n        /* \"#utility.yul\":4413:4446   */\n      tag_189\n        /* \"#utility.yul\":4441:4445   */\n      dup3\n        /* \"#utility.yul\":4433:4439   */\n      dup3\n        /* \"#utility.yul\":4413:4446   */\n      tag_102\n      jump\t// in\n    tag_189:\n        /* \"#utility.yul\":4323:4452   */\n      swap2\n      swap1\n      pop\n      jump\t// out\n        /* \"#utility.yul\":4458:4766   */\n    tag_104:\n        /* \"#utility.yul\":4520:4524   */\n      0x00\n        /* \"#utility.yul\":4610:4628   */\n      0xffffffffffffffff\n        /* \"#utility.yul\":4602:4608   */\n      dup3\n        /* \"#utility.yul\":4599:4629   */\n      gt\n        /* \"#utility.yul\":4596:4652   */\n      iszero\n      tag_191\n      jumpi\n        /* \"#utility.yul\":4632:4650   */\n      tag_192\n      tag_101\n      jump\t// in\n    tag_192:\n        /* \"#utility.yul\":4596:4652   */\n    tag_191:\n        /* \"#utility.yul\":4670:4699   */\n      tag_193\n        /* \"#utility.yul\":4692:4698   */\n      dup3\n        /* \"#utility.yul\":4670:4699   */\n      tag_93\n      jump\t// in\n    tag_193:\n        /* \"#utility.yul\":4662:4699   */\n      swap1\n      pop\n        /* \"#utility.yul\":4754:4758   */\n      0x20\n        /* \"#utility.yul\":4748:4752   */\n      dup2\n        /* \"#utility.yul\":4744:4759   */\n      add\n        /* \"#utility.yul\":4736:4759   */\n      swap1\n      pop\n        /* \"#utility.yul\":4458:4766   */\n      swap2\n      swap1\n      pop\n      jump\t// out\n        /* \"#utility.yul\":4772:4918   */\n    tag_105:\n        /* \"#utility.yul\":4869:4875   */\n      dup3\n        /* \"#utility.yul\":4864:4867   */\n      dup2\n        /* \"#utility.yul\":4859:4862   */\n      dup4\n        /* \"#utility.yul\":4846:4876   */\n      calldatacopy\n        /* \"#utility.yul\":4910:4911   */\n      0x00\n        /* \"#utility.yul\":4901:4907   */\n      dup4\n        /* \"#utility.yul\":4896:4899   */\n      dup4\n        /* \"#utility.yul\":4892:4908   */\n      add\n        /* \"#utility.yul\":4885:4912   */\n      mstore\n        /* \"#utility.yul\":4772:4918   */\n      pop\n      pop\n      pop\n      jump\t// out\n        /* \"#utility.yul\":4924:5349   */\n    tag_106:\n        /* \"#utility.yul\":5002:5007   */\n      0x00\n        /* \"#utility.yul\":5027:5093   */\n      tag_196\n        /* \"#utility.yul\":5043:5092   */\n      tag_197\n        /* \"#utility.yul\":5085:5091   */\n      dup5\n        /* \"#utility.yul\":5043:5092   */\n      tag_104\n      jump\t// in\n    tag_197:\n        /* \"#utility.yul\":5027:5093   */\n      tag_103\n      jump\t// in\n    tag_196:\n        /* \"#utility.yul\":5018:5093   */\n      swap1\n      pop\n        /* \"#utility.yul\":5116:5122   */\n      dup3\n        /* \"#utility.yul\":5109:5114   */\n      dup2\n        /* \"#utility.yul\":5102:5123   */\n      mstore\n        /* \"#utility.yul\":5154:5158   */\n      0x20\n        /* \"#utility.yul\":5147:5152   */\n      dup2\n        /* \"#utility.yul\":5143:5159   */\n      add\n        /* \"#utility.yul\":5192:5195   */\n      dup5\n        /* \"#utility.yul\":5183:5189   */\n      dup5\n        /* \"#utility.yul\":5178:5181   */\n      dup5\n        /* \"#utility.yul\":5174:5190   */\n      add\n        /* \"#utility.yul\":5171:5196   */\n      gt\n        /* \"#utility.yul\":5168:5280   */\n      iszero\n      tag_198\n      jumpi\n        /* \"#utility.yul\":5199:5278   */\n      tag_199\n      tag_100\n      jump\t// in\n    tag_199:\n        /* \"#utility.yul\":5168:5280   */\n    tag_198:\n        /* \"#utility.yul\":5289:5343   */\n      tag_200\n        /* \"#utility.yul\":5336:5342   */\n      dup5\n        /* \"#utility.yul\":5331:5334   */\n      dup3\n        /* \"#utility.yul\":5326:5329   */\n      dup6\n        /* \"#utility.yul\":5289:5343   */\n      tag_105\n      jump\t// in\n    tag_200:\n        /* \"#utility.yul\":5008:5349   */\n      pop\n        /* \"#utility.yul\":4924:5349   */\n      swap4\n      swap3\n      pop\n      pop\n      pop\n      jump\t// out\n        /* \"#utility.yul\":5369:5709   */\n    tag_107:\n        /* \"#utility.yul\":5425:5430   */\n      0x00\n        /* \"#utility.yul\":5474:5477   */\n      dup3\n        /* \"#utility.yul\":5467:5471   */\n      0x1f\n        /* \"#utility.yul\":5459:5465   */\n      dup4\n        /* \"#utility.yul\":5455:5472   */\n      add\n        /* \"#utility.yul\":5451:5478   */\n      slt\n        /* \"#utility.yul\":5441:5563   */\n      tag_202\n      jumpi\n        /* \"#utility.yul\":5482:5561   */\n      tag_203\n      tag_99\n      jump\t// in\n    tag_203:\n        /* \"#utility.yul\":5441:5563   */\n    tag_202:\n        /* \"#utility.yul\":5599:5605   */\n      dup2\n        /* \"#utility.yul\":5586:5606   */\n      calldataload\n        /* \"#utility.yul\":5624:5703   */\n      tag_204\n        /* \"#utility.yul\":5699:5702   */\n      dup5\n        /* \"#utility.yul\":5691:5697   */\n      dup3\n        /* \"#utility.yul\":5684:5688   */\n      0x20\n        /* \"#utility.yul\":5676:5682   */\n      dup7\n        /* \"#utility.yul\":5672:5689   */\n      add\n        /* \"#utility.yul\":5624:5703   */\n      tag_106\n      jump\t// in\n    tag_204:\n        /* \"#utility.yul\":5615:5703   */\n      swap2\n      pop\n        /* \"#utility.yul\":5431:5709   */\n      pop\n        /* \"#utility.yul\":5369:5709   */\n      swap3\n      swap2\n      pop\n      pop\n      jump\t// out\n        /* \"#utility.yul\":5715:6986   */\n    tag_20:\n        /* \"#utility.yul\":5830:5836   */\n      0x00\n        /* \"#utility.yul\":5838:5844   */\n      dup1\n        /* \"#utility.yul\":5846:5852   */\n      0x00\n        /* \"#utility.yul\":5854:5860   */\n      dup1\n        /* \"#utility.yul\":5862:5868   */\n      0x00\n        /* \"#utility.yul\":5911:5914   */\n      0xa0\n        /* \"#utility.yul\":5899:5908   */\n      dup7\n        /* \"#utility.yul\":5890:5897   */\n      dup9\n        /* \"#utility.yul\":5886:5909   */\n      sub\n        /* \"#utility.yul\":5882:5915   */\n      slt\n        /* \"#utility.yul\":5879:5999   */\n      iszero\n      tag_206\n      jumpi\n        /* \"#utility.yul\":5918:5997   */\n      tag_207\n      tag_85\n      jump\t// in\n    tag_207:\n        /* \"#utility.yul\":5879:5999   */\n    tag_206:\n        /* \"#utility.yul\":6066:6067   */\n      0x00\n        /* \"#utility.yul\":6055:6064   */\n      dup7\n        /* \"#utility.yul\":6051:6068   */\n      add\n        /* \"#utility.yul\":6038:6069   */\n      calldataload\n        /* \"#utility.yul\":6096:6114   */\n      0xffffffffffffffff\n        /* \"#utility.yul\":6088:6094   */\n      dup2\n        /* \"#utility.yul\":6085:6115   */\n      gt\n        /* \"#utility.yul\":6082:6199   */\n      iszero\n      tag_208\n      jumpi\n        /* \"#utility.yul\":6118:6197   */\n      tag_209\n      tag_86\n      jump\t// in\n    tag_209:\n        /* \"#utility.yul\":6082:6199   */\n    tag_208:\n        /* \"#utility.yul\":6223:6286   */\n      tag_210\n        /* \"#utility.yul\":6278:6285   */\n      dup9\n        /* \"#utility.yul\":6269:6275   */\n      dup3\n        /* \"#utility.yul\":6258:6267   */\n      dup10\n        /* \"#utility.yul\":6254:6276   */\n      add\n        /* \"#utility.yul\":6223:6286   */\n      tag_107\n      jump\t// in\n    tag_210:\n        /* \"#utility.yul\":6213:6286   */\n      swap6\n      pop\n        /* \"#utility.yul\":6009:6296   */\n      pop\n        /* \"#utility.yul\":6363:6365   */\n      0x20\n        /* \"#utility.yul\":6352:6361   */\n      dup7\n        /* \"#utility.yul\":6348:6366   */\n      add\n        /* \"#utility.yul\":6335:6367   */\n      calldataload\n        /* \"#utility.yul\":6394:6412   */\n      0xffffffffffffffff\n        /* \"#utility.yul\":6386:6392   */\n      dup2\n        /* \"#utility.yul\":6383:6413   */\n      gt\n        /* \"#utility.yul\":6380:6497   */\n      iszero\n      tag_211\n      jumpi\n        /* \"#utility.yul\":6416:6495   */\n      tag_212\n      tag_86\n      jump\t// in\n    tag_212:\n        /* \"#utility.yul\":6380:6497   */\n    tag_211:\n        /* \"#utility.yul\":6521:6584   */\n      tag_213\n        /* \"#utility.yul\":6576:6583   */\n      dup9\n        /* \"#utility.yul\":6567:6573   */\n      dup3\n        /* \"#utility.yul\":6556:6565   */\n      dup10\n        /* \"#utility.yul\":6552:6574   */\n      add\n        /* \"#utility.yul\":6521:6584   */\n      tag_107\n      jump\t// in\n    tag_213:\n        /* \"#utility.yul\":6511:6584   */\n      swap5\n      pop\n        /* \"#utility.yul\":6306:6594   */\n      pop\n        /* \"#utility.yul\":6633:6635   */\n      0x40\n        /* \"#utility.yul\":6659:6712   */\n      tag_214\n        /* \"#utility.yul\":6704:6711   */\n      dup9\n        /* \"#utility.yul\":6695:6701   */\n      dup3\n        /* \"#utility.yul\":6684:6693   */\n      dup10\n        /* \"#utility.yul\":6680:6702   */\n      add\n        /* \"#utility.yul\":6659:6712   */\n      tag_89\n      jump\t// in\n    tag_214:\n        /* \"#utility.yul\":6649:6712   */\n      swap4\n      pop\n        /* \"#utility.yul\":6604:6722   */\n      pop\n        /* \"#utility.yul\":6761:6763   */\n      0x60\n        /* \"#utility.yul\":6787:6840   */\n      tag_215\n        /* \"#utility.yul\":6832:6839   */\n      dup9\n        /* \"#utility.yul\":6823:6829   */\n      dup3\n        /* \"#utility.yul\":6812:6821   */\n      dup10\n        /* \"#utility.yul\":6808:6830   */\n      add\n        /* \"#utility.yul\":6787:6840   */\n      tag_89\n      jump\t// in\n    tag_215:\n        /* \"#utility.yul\":6777:6840   */\n      swap3\n      pop\n        /* \"#utility.yul\":6732:6850   */\n      pop\n        /* \"#utility.yul\":6889:6892   */\n      0x80\n        /* \"#utility.yul\":6916:6969   */\n      tag_216\n        /* \"#utility.yul\":6961:6968   */\n      dup9\n        /* \"#utility.yul\":6952:6958   */\n      dup3\n        /* \"#utility.yul\":6941:6950   */\n      dup10\n        /* \"#utility.yul\":6937:6959   */\n      add\n        /* \"#utility.yul\":6916:6969   */\n      tag_89\n      jump\t// in\n    tag_216:\n        /* \"#utility.yul\":6906:6969   */\n      swap2\n      pop\n        /* \"#utility.yul\":6860:6979   */\n      pop\n        /* \"#utility.yul\":5715:6986   */\n      swap3\n      swap6\n      pop\n      swap3\n      swap6\n      swap1\n      swap4\n      pop\n      jump\t// out\n        /* \"#utility.yul\":6992:7082   */\n    tag_108:\n        /* \"#utility.yul\":7026:7033   */\n      0x00\n        /* \"#utility.yul\":7069:7074   */\n      dup2\n        /* \"#utility.yul\":7062:7075   */\n      iszero\n        /* \"#utility.yul\":7055:7076   */\n      iszero\n        /* \"#utility.yul\":7044:7076   */\n      swap1\n      pop\n        /* \"#utility.yul\":6992:7082   */\n      swap2\n      swap1\n      pop\n      jump\t// out\n        /* \"#utility.yul\":7088:7197   */\n    tag_109:\n        /* \"#utility.yul\":7169:7190   */\n      tag_219\n        /* \"#utility.yul\":7184:7189   */\n      dup2\n        /* \"#utility.yul\":7169:7190   */\n      tag_108\n      jump\t// in\n    tag_219:\n        /* \"#utility.yul\":7164:7167   */\n      dup3\n        /* \"#utility.yul\":7157:7191   */\n      mstore\n        /* \"#utility.yul\":7088:7197   */\n      pop\n      pop\n      jump\t// out\n        /* \"#utility.yul\":7203:7633   */\n    tag_27:\n        /* \"#utility.yul\":7346:7350   */\n      0x00\n        /* \"#utility.yul\":7384:7386   */\n      0x60\n        /* \"#utility.yul\":7373:7382   */\n      dup3\n        /* \"#utility.yul\":7369:7387   */\n      add\n        /* \"#utility.yul\":7361:7387   */\n      swap1\n      pop\n        /* \"#utility.yul\":7397:7468   */\n      tag_221\n        /* \"#utility.yul\":7465:7466   */\n      0x00\n        /* \"#utility.yul\":7454:7463   */\n      dup4\n        /* \"#utility.yul\":7450:7467   */\n      add\n        /* \"#utility.yul\":7441:7447   */\n      dup7\n        /* \"#utility.yul\":7397:7468   */\n      tag_95\n      jump\t// in\n    tag_221:\n        /* \"#utility.yul\":7478:7550   */\n      tag_222\n        /* \"#utility.yul\":7546:7548   */\n      0x20\n        /* \"#utility.yul\":7535:7544   */\n      dup4\n        /* \"#utility.yul\":7531:7549   */\n      add\n        /* \"#utility.yul\":7522:7528   */\n      dup6\n        /* \"#utility.yul\":7478:7550   */\n      tag_98\n      jump\t// in\n    tag_222:\n        /* \"#utility.yul\":7560:7626   */\n      tag_223\n        /* \"#utility.yul\":7622:7624   */\n      0x40\n        /* \"#utility.yul\":7611:7620   */\n      dup4\n        /* \"#utility.yul\":7607:7625   */\n      add\n        /* \"#utility.yul\":7598:7604   */\n      dup5\n        /* \"#utility.yul\":7560:7626   */\n      tag_109\n      jump\t// in\n    tag_223:\n        /* \"#utility.yul\":7203:7633   */\n      swap5\n      swap4\n      pop\n      pop\n      pop\n      pop\n      jump\t// out\n        /* \"#utility.yul\":7639:7861   */\n    tag_32:\n        /* \"#utility.yul\":7732:7736   */\n      0x00\n        /* \"#utility.yul\":7770:7772   */\n      0x20\n        /* \"#utility.yul\":7759:7768   */\n      dup3\n        /* \"#utility.yul\":7755:7773   */\n      add\n        /* \"#utility.yul\":7747:7773   */\n      swap1\n      pop\n        /* \"#utility.yul\":7783:7854   */\n      tag_225\n        /* \"#utility.yul\":7851:7852   */\n      0x00\n        /* \"#utility.yul\":7840:7849   */\n      dup4\n        /* \"#utility.yul\":7836:7853   */\n      add\n        /* \"#utility.yul\":7827:7833   */\n      dup5\n        /* \"#utility.yul\":7783:7854   */\n      tag_95\n      jump\t// in\n    tag_225:\n        /* \"#utility.yul\":7639:7861   */\n      swap3\n      swap2\n      pop\n      pop\n      jump\t// out\n        /* \"#utility.yul\":7867:7989   */\n    tag_110:\n        /* \"#utility.yul\":7940:7964   */\n      tag_227\n        /* \"#utility.yul\":7958:7963   */\n      dup2\n        /* \"#utility.yul\":7940:7964   */\n      tag_97\n      jump\t// in\n    tag_227:\n        /* \"#utility.yul\":7933:7938   */\n      dup2\n        /* \"#utility.yul\":7930:7965   */\n      eq\n        /* \"#utility.yul\":7920:7983   */\n      tag_228\n      jumpi\n        /* \"#utility.yul\":7979:7980   */\n      0x00\n        /* \"#utility.yul\":7976:7977   */\n      dup1\n        /* \"#utility.yul\":7969:7981   */\n      revert\n        /* \"#utility.yul\":7920:7983   */\n    tag_228:\n        /* \"#utility.yul\":7867:7989   */\n      pop\n      jump\t// out\n        /* \"#utility.yul\":7995:8134   */\n    tag_111:\n        /* \"#utility.yul\":8041:8046   */\n      0x00\n        /* \"#utility.yul\":8079:8085   */\n      dup2\n        /* \"#utility.yul\":8066:8086   */\n      calldataload\n        /* \"#utility.yul\":8057:8086   */\n      swap1\n      pop\n        /* \"#utility.yul\":8095:8128   */\n      tag_230\n        /* \"#utility.yul\":8122:8127   */\n      dup2\n        /* \"#utility.yul\":8095:8128   */\n      tag_110\n      jump\t// in\n    tag_230:\n        /* \"#utility.yul\":7995:8134   */\n      swap3\n      swap2\n      pop\n      pop\n      jump\t// out\n        /* \"#utility.yul\":8140:8614   */\n    tag_43:\n        /* \"#utility.yul\":8208:8214   */\n      0x00\n        /* \"#utility.yul\":8216:8222   */\n      dup1\n        /* \"#utility.yul\":8265:8267   */\n      0x40\n        /* \"#utility.yul\":8253:8262   */\n      dup4\n        /* \"#utility.yul\":8244:8251   */\n      dup6\n        /* \"#utility.yul\":8240:8263   */\n      sub\n        /* \"#utility.yul\":8236:8268   */\n      slt\n        /* \"#utility.yul\":8233:8352   */\n      iszero\n      tag_232\n      jumpi\n        /* \"#utility.yul\":8271:8350   */\n      tag_233\n      tag_85\n      jump\t// in\n    tag_233:\n        /* \"#utility.yul\":8233:8352   */\n    tag_232:\n        /* \"#utility.yul\":8391:8392   */\n      0x00\n        /* \"#utility.yul\":8416:8469   */\n      tag_234\n        /* \"#utility.yul\":8461:8468   */\n      dup6\n        /* \"#utility.yul\":8452:8458   */\n      dup3\n        /* \"#utility.yul\":8441:8450   */\n      dup7\n        /* \"#utility.yul\":8437:8459   */\n      add\n        /* \"#utility.yul\":8416:8469   */\n      tag_111\n      jump\t// in\n    tag_234:\n        /* \"#utility.yul\":8406:8469   */\n      swap3\n      pop\n        /* \"#utility.yul\":8362:8479   */\n      pop\n        /* \"#utility.yul\":8518:8520   */\n      0x20\n        /* \"#utility.yul\":8544:8597   */\n      tag_235\n        /* \"#utility.yul\":8589:8596   */\n      dup6\n        /* \"#utility.yul\":8580:8586   */\n      dup3\n        /* \"#utility.yul\":8569:8578   */\n      dup7\n        /* \"#utility.yul\":8565:8587   */\n      add\n        /* \"#utility.yul\":8544:8597   */\n      tag_89\n      jump\t// in\n    tag_235:\n        /* \"#utility.yul\":8534:8597   */\n      swap2\n      pop\n        /* \"#utility.yul\":8489:8607   */\n      pop\n        /* \"#utility.yul\":8140:8614   */\n      swap3\n      pop\n      swap3\n      swap1\n      pop\n      jump\t// out\n        /* \"#utility.yul\":8620:8800   */\n    tag_112:\n        /* \"#utility.yul\":8668:8745   */\n      0x4e487b7100000000000000000000000000000000000000000000000000000000\n        /* \"#utility.yul\":8665:8666   */\n      0x00\n        /* \"#utility.yul\":8658:8746   */\n      mstore\n        /* \"#utility.yul\":8765:8769   */\n      0x22\n        /* \"#utility.yul\":8762:8763   */\n      0x04\n        /* \"#utility.yul\":8755:8770   */\n      mstore\n        /* \"#utility.yul\":8789:8793   */\n      0x24\n        /* \"#utility.yul\":8786:8787   */\n      0x00\n        /* \"#utility.yul\":8779:8794   */\n      revert\n        /* \"#utility.yul\":8806:9126   */\n    tag_47:\n        /* \"#utility.yul\":8850:8856   */\n      0x00\n        /* \"#utility.yul\":8887:8888   */\n      0x02\n        /* \"#utility.yul\":8881:8885   */\n      dup3\n        /* \"#utility.yul\":8877:8889   */\n      div\n        /* \"#utility.yul\":8867:8889   */\n      swap1\n      pop\n        /* \"#utility.yul\":8934:8935   */\n      0x01\n        /* \"#utility.yul\":8928:8932   */\n      dup3\n        /* \"#utility.yul\":8924:8936   */\n      and\n        /* \"#utility.yul\":8955:8973   */\n      dup1\n        /* \"#utility.yul\":8945:9026   */\n      tag_238\n      jumpi\n        /* \"#utility.yul\":9011:9015   */\n      0x7f\n        /* \"#utility.yul\":9003:9009   */\n      dup3\n        /* \"#utility.yul\":8999:9016   */\n      and\n        /* \"#utility.yul\":8989:9016   */\n      swap2\n      pop\n        /* \"#utility.yul\":8945:9026   */\n    tag_238:\n        /* \"#utility.yul\":9073:9075   */\n      0x20\n        /* \"#utility.yul\":9065:9071   */\n      dup3\n        /* \"#utility.yul\":9062:9076   */\n      lt\n        /* \"#utility.yul\":9042:9060   */\n      dup2\n        /* \"#utility.yul\":9039:9077   */\n      sub\n        /* \"#utility.yul\":9036:9120   */\n      tag_239\n      jumpi\n        /* \"#utility.yul\":9092:9110   */\n      tag_240\n      tag_112\n      jump\t// in\n    tag_240:\n        /* \"#utility.yul\":9036:9120   */\n    tag_239:\n        /* \"#utility.yul\":8857:9126   */\n      pop\n        /* \"#utility.yul\":8806:9126   */\n      swap2\n      swap1\n      pop\n      jump\t// out\n        /* \"#utility.yul\":9132:9353   */\n    tag_113:\n        /* \"#utility.yul\":9272:9306   */\n      0x42726f6a20756c617a6e696361206d6f726120626974692076656369206f6420\n        /* \"#utility.yul\":9268:9269   */\n      0x00\n        /* \"#utility.yul\":9260:9266   */\n      dup3\n        /* \"#utility.yul\":9256:9270   */\n      add\n        /* \"#utility.yul\":9249:9307   */\n      mstore\n        /* \"#utility.yul\":9341:9345   */\n      0x302e000000000000000000000000000000000000000000000000000000000000\n        /* \"#utility.yul\":9336:9338   */\n      0x20\n        /* \"#utility.yul\":9328:9334   */\n      dup3\n        /* \"#utility.yul\":9324:9339   */\n      add\n        /* \"#utility.yul\":9317:9346   */\n      mstore\n        /* \"#utility.yul\":9132:9353   */\n      pop\n      jump\t// out\n        /* \"#utility.yul\":9359:9725   */\n    tag_114:\n        /* \"#utility.yul\":9501:9504   */\n      0x00\n        /* \"#utility.yul\":9522:9589   */\n      tag_243\n        /* \"#utility.yul\":9586:9588   */\n      0x22\n        /* \"#utility.yul\":9581:9584   */\n      dup4\n        /* \"#utility.yul\":9522:9589   */\n      tag_91\n      jump\t// in\n    tag_243:\n        /* \"#utility.yul\":9515:9589   */\n      swap2\n      pop\n        /* \"#utility.yul\":9598:9691   */\n      tag_244\n        /* \"#utility.yul\":9687:9690   */\n      dup3\n        /* \"#utility.yul\":9598:9691   */\n      tag_113\n      jump\t// in\n    tag_244:\n        /* \"#utility.yul\":9716:9718   */\n      0x40\n        /* \"#utility.yul\":9711:9714   */\n      dup3\n        /* \"#utility.yul\":9707:9719   */\n      add\n        /* \"#utility.yul\":9700:9719   */\n      swap1\n      pop\n        /* \"#utility.yul\":9359:9725   */\n      swap2\n      swap1\n      pop\n      jump\t// out\n        /* \"#utility.yul\":9731:10150   */\n    tag_60:\n        /* \"#utility.yul\":9897:9901   */\n      0x00\n        /* \"#utility.yul\":9935:9937   */\n      0x20\n        /* \"#utility.yul\":9924:9933   */\n      dup3\n        /* \"#utility.yul\":9920:9938   */\n      add\n        /* \"#utility.yul\":9912:9938   */\n      swap1\n      pop\n        /* \"#utility.yul\":9984:9993   */\n      dup2\n        /* \"#utility.yul\":9978:9982   */\n      dup2\n        /* \"#utility.yul\":9974:9994   */\n      sub\n        /* \"#utility.yul\":9970:9971   */\n      0x00\n        /* \"#utility.yul\":9959:9968   */\n      dup4\n        /* \"#utility.yul\":9955:9972   */\n      add\n        /* \"#utility.yul\":9948:9995   */\n      mstore\n        /* \"#utility.yul\":10012:10143   */\n      tag_246\n        /* \"#utility.yul\":10138:10142   */\n      dup2\n        /* \"#utility.yul\":10012:10143   */\n      tag_114\n      jump\t// in\n    tag_246:\n        /* \"#utility.yul\":10004:10143   */\n      swap1\n      pop\n        /* \"#utility.yul\":9731:10150   */\n      swap2\n      swap1\n      pop\n      jump\t// out\n        /* \"#utility.yul\":10156:10379   */\n    tag_115:\n        /* \"#utility.yul\":10296:10330   */\n      0x43696a656e6120756c617a6e696365206d6f726120626974692076656361206f\n        /* \"#utility.yul\":10292:10293   */\n      0x00\n        /* \"#utility.yul\":10284:10290   */\n      dup3\n        /* \"#utility.yul\":10280:10294   */\n      add\n        /* \"#utility.yul\":10273:10331   */\n      mstore\n        /* \"#utility.yul\":10365:10371   */\n      0x6420302e00000000000000000000000000000000000000000000000000000000\n        /* \"#utility.yul\":10360:10362   */\n      0x20\n        /* \"#utility.yul\":10352:10358   */\n      dup3\n        /* \"#utility.yul\":10348:10363   */\n      add\n        /* \"#utility.yul\":10341:10372   */\n      mstore\n        /* \"#utility.yul\":10156:10379   */\n      pop\n      jump\t// out\n        /* \"#utility.yul\":10385:10751   */\n    tag_116:\n        /* \"#utility.yul\":10527:10530   */\n      0x00\n        /* \"#utility.yul\":10548:10615   */\n      tag_249\n        /* \"#utility.yul\":10612:10614   */\n      0x24\n        /* \"#utility.yul\":10607:10610   */\n      dup4\n        /* \"#utility.yul\":10548:10615   */\n      tag_91\n      jump\t// in\n    tag_249:\n        /* \"#utility.yul\":10541:10615   */\n      swap2\n      pop\n        /* \"#utility.yul\":10624:10717   */\n      tag_250\n        /* \"#utility.yul\":10713:10716   */\n      dup3\n        /* \"#utility.yul\":10624:10717   */\n      tag_115\n      jump\t// in\n    tag_250:\n        /* \"#utility.yul\":10742:10744   */\n      0x40\n        /* \"#utility.yul\":10737:10740   */\n      dup3\n        /* \"#utility.yul\":10733:10745   */\n      add\n        /* \"#utility.yul\":10726:10745   */\n      swap1\n      pop\n        /* \"#utility.yul\":10385:10751   */\n      swap2\n      swap1\n      pop\n      jump\t// out\n        /* \"#utility.yul\":10757:11176   */\n    tag_63:\n        /* \"#utility.yul\":10923:10927   */\n      0x00\n        /* \"#utility.yul\":10961:10963   */\n      0x20\n        /* \"#utility.yul\":10950:10959   */\n      dup3\n        /* \"#utility.yul\":10946:10964   */\n      add\n        /* \"#utility.yul\":10938:10964   */\n      swap1\n      pop\n        /* \"#utility.yul\":11010:11019   */\n      dup2\n        /* \"#utility.yul\":11004:11008   */\n      dup2\n        /* \"#utility.yul\":11000:11020   */\n      sub\n        /* \"#utility.yul\":10996:10997   */\n      0x00\n        /* \"#utility.yul\":10985:10994   */\n      dup4\n        /* \"#utility.yul\":10981:10998   */\n      add\n        /* \"#utility.yul\":10974:11021   */\n      mstore\n        /* \"#utility.yul\":11038:11169   */\n      tag_252\n        /* \"#utility.yul\":11164:11168   */\n      dup2\n        /* \"#utility.yul\":11038:11169   */\n      tag_116\n      jump\t// in\n    tag_252:\n        /* \"#utility.yul\":11030:11169   */\n      swap1\n      pop\n        /* \"#utility.yul\":10757:11176   */\n      swap2\n      swap1\n      pop\n      jump\t// out\n        /* \"#utility.yul\":11182:11323   */\n    tag_117:\n        /* \"#utility.yul\":11231:11235   */\n      0x00\n        /* \"#utility.yul\":11254:11257   */\n      dup2\n        /* \"#utility.yul\":11246:11257   */\n      swap1\n      pop\n        /* \"#utility.yul\":11277:11280   */\n      dup2\n        /* \"#utility.yul\":11274:11275   */\n      0x00\n        /* \"#utility.yul\":11267:11281   */\n      mstore\n        /* \"#utility.yul\":11311:11315   */\n      0x20\n        /* \"#utility.yul\":11308:11309   */\n      0x00\n        /* \"#utility.yul\":11298:11316   */\n      keccak256\n        /* \"#utility.yul\":11290:11316   */\n      swap1\n      pop\n        /* \"#utility.yul\":11182:11323   */\n      swap2\n      swap1\n      pop\n      jump\t// out\n        /* \"#utility.yul\":11329:11422   */\n    tag_118:\n        /* \"#utility.yul\":11366:11372   */\n      0x00\n        /* \"#utility.yul\":11413:11415   */\n      0x20\n        /* \"#utility.yul\":11408:11410   */\n      0x1f\n        /* \"#utility.yul\":11401:11406   */\n      dup4\n        /* \"#utility.yul\":11397:11411   */\n      add\n        /* \"#utility.yul\":11393:11416   */\n      div\n        /* \"#utility.yul\":11383:11416   */\n      swap1\n      pop\n        /* \"#utility.yul\":11329:11422   */\n      swap2\n      swap1\n      pop\n      jump\t// out\n        /* \"#utility.yul\":11428:11535   */\n    tag_119:\n        /* \"#utility.yul\":11472:11480   */\n      0x00\n        /* \"#utility.yul\":11522:11527   */\n      dup3\n        /* \"#utility.yul\":11516:11520   */\n      dup3\n        /* \"#utility.yul\":11512:11528   */\n      shl\n        /* \"#utility.yul\":11491:11528   */\n      swap1\n      pop\n        /* \"#utility.yul\":11428:11535   */\n      swap3\n      swap2\n      pop\n      pop\n      jump\t// out\n        /* \"#utility.yul\":11541:11934   */\n    tag_120:\n        /* \"#utility.yul\":11610:11616   */\n      0x00\n        /* \"#utility.yul\":11660:11661   */\n      0x08\n        /* \"#utility.yul\":11648:11658   */\n      dup4\n        /* \"#utility.yul\":11644:11662   */\n      mul\n        /* \"#utility.yul\":11683:11780   */\n      tag_257\n        /* \"#utility.yul\":11713:11779   */\n      0xffffffffffffffffffffffffffffffffffffffffffffffffffffffffffffffff\n        /* \"#utility.yul\":11702:11711   */\n      dup3\n        /* \"#utility.yul\":11683:11780   */\n      tag_119\n      jump\t// in\n    tag_257:\n        /* \"#utility.yul\":11801:11840   */\n      tag_258\n        /* \"#utility.yul\":11831:11839   */\n      dup7\n        /* \"#utility.yul\":11820:11829   */\n      dup4\n        /* \"#utility.yul\":11801:11840   */\n      tag_119\n      jump\t// in\n    tag_258:\n        /* \"#utility.yul\":11789:11840   */\n      swap6\n      pop\n        /* \"#utility.yul\":11873:11877   */\n      dup1\n        /* \"#utility.yul\":11869:11878   */\n      not\n        /* \"#utility.yul\":11862:11867   */\n      dup5\n        /* \"#utility.yul\":11858:11879   */\n      and\n        /* \"#utility.yul\":11849:11879   */\n      swap4\n      pop\n        /* \"#utility.yul\":11922:11926   */\n      dup1\n        /* \"#utility.yul\":11912:11920   */\n      dup7\n        /* \"#utility.yul\":11908:11927   */\n      and\n        /* \"#utility.yul\":11901:11906   */\n      dup5\n        /* \"#utility.yul\":11898:11928   */\n      or\n        /* \"#utility.yul\":11888:11928   */\n      swap3\n      pop\n        /* \"#utility.yul\":11617:11934   */\n      pop\n      pop\n        /* \"#utility.yul\":11541:11934   */\n      swap4\n      swap3\n      pop\n      pop\n      pop\n      jump\t// out\n        /* \"#utility.yul\":11940:12000   */\n    tag_121:\n        /* \"#utility.yul\":11968:11971   */\n      0x00\n        /* \"#utility.yul\":11989:11994   */\n      dup2\n        /* \"#utility.yul\":11982:11994   */\n      swap1\n      pop\n        /* \"#utility.yul\":11940:12000   */\n      swap2\n      swap1\n      pop\n      jump\t// out\n        /* \"#utility.yul\":12006:12148   */\n    tag_122:\n        /* \"#utility.yul\":12056:12065   */\n      0x00\n        /* \"#utility.yul\":12089:12142   */\n      tag_261\n        /* \"#utility.yul\":12107:12141   */\n      tag_262\n        /* \"#utility.yul\":12116:12140   */\n      tag_263\n        /* \"#utility.yul\":12134:12139   */\n      dup5\n        /* \"#utility.yul\":12116:12140   */\n      tag_87\n      jump\t// in\n    tag_263:\n        /* \"#utility.yul\":12107:12141   */\n      tag_121\n      jump\t// in\n    tag_262:\n        /* \"#utility.yul\":12089:12142   */\n      tag_87\n      jump\t// in\n    tag_261:\n        /* \"#utility.yul\":12076:12142   */\n      swap1\n      pop\n        /* \"#utility.yul\":12006:12148   */\n      swap2\n      swap1\n      pop\n      jump\t// out\n        /* \"#utility.yul\":12154:12229   */\n    tag_123:\n        /* \"#utility.yul\":12197:12200   */\n      0x00\n        /* \"#utility.yul\":12218:12223   */\n      dup2\n        /* \"#utility.yul\":12211:12223   */\n      swap1\n      pop\n        /* \"#utility.yul\":12154:12229   */\n      swap2\n      swap1\n      pop\n      jump\t// out\n        /* \"#utility.yul\":12235:12504   */\n    tag_124:\n        /* \"#utility.yul\":12345:12384   */\n      tag_266\n        /* \"#utility.yul\":12376:12383   */\n      dup4\n        /* \"#utility.yul\":12345:12384   */\n      tag_122\n      jump\t// in\n    tag_266:\n        /* \"#utility.yul\":12406:12497   */\n      tag_267\n        /* \"#utility.yul\":12455:12496   */\n      tag_268\n        /* \"#utility.yul\":12479:12495   */\n      dup3\n        /* \"#utility.yul\":12455:12496   */\n      tag_123\n      jump\t// in\n    tag_268:\n        /* \"#utility.yul\":12447:12453   */\n      dup5\n        /* \"#utility.yul\":12440:12444   */\n      dup5\n        /* \"#utility.yul\":12434:12445   */\n      sload\n        /* \"#utility.yul\":12406:12497   */\n      tag_120\n      jump\t// in\n    tag_267:\n        /* \"#utility.yul\":12400:12404   */\n      dup3\n        /* \"#utility.yul\":12393:12498   */\n      sstore\n        /* \"#utility.yul\":12311:12504   */\n      pop\n        /* \"#utility.yul\":12235:12504   */\n      pop\n      pop\n      pop\n      jump\t// out\n        /* \"#utility.yul\":12510:12583   */\n    tag_125:\n        /* \"#utility.yul\":12555:12558   */\n      0x00\n        /* \"#utility.yul\":12510:12583   */\n      swap1\n      jump\t// out\n        /* \"#utility.yul\":12589:12778   */\n    tag_126:\n        /* \"#utility.yul\":12666:12698   */\n      tag_271\n      tag_125\n      jump\t// in\n    tag_271:\n        /* \"#utility.yul\":12707:12772   */\n      tag_272\n        /* \"#utility.yul\":12765:12771   */\n      dup2\n        /* \"#utility.yul\":12757:12763   */\n      dup5\n        /* \"#utility.yul\":12751:12755   */\n      dup5\n        /* \"#utility.yul\":12707:12772   */\n      tag_124\n      jump\t// in\n    tag_272:\n        /* \"#utility.yul\":12642:12778   */\n      pop\n        /* \"#utility.yul\":12589:12778   */\n      pop\n      pop\n      jump\t// out\n        /* \"#utility.yul\":12784:12970   */\n    tag_127:\n        /* \"#utility.yul\":12844:12964   */\n    tag_274:\n        /* \"#utility.yul\":12861:12864   */\n      dup2\n        /* \"#utility.yul\":12854:12859   */\n      dup2\n        /* \"#utility.yul\":12851:12865   */\n      lt\n        /* \"#utility.yul\":12844:12964   */\n      iszero\n      tag_276\n      jumpi\n        /* \"#utility.yul\":12915:12954   */\n      tag_277\n        /* \"#utility.yul\":12952:12953   */\n      0x00\n        /* \"#utility.yul\":12945:12950   */\n      dup3\n        /* \"#utility.yul\":12915:12954   */\n      tag_126\n      jump\t// in\n    tag_277:\n        /* \"#utility.yul\":12888:12889   */\n      0x01\n        /* \"#utility.yul\":12881:12886   */\n      dup2\n        /* \"#utility.yul\":12877:12890   */\n      add\n        /* \"#utility.yul\":12868:12890   */\n      swap1\n      pop\n        /* \"#utility.yul\":12844:12964   */\n      jump(tag_274)\n    tag_276:\n        /* \"#utility.yul\":12784:12970   */\n      pop\n      pop\n      jump\t// out\n        /* \"#utility.yul\":12976:13519   */\n    tag_128:\n        /* \"#utility.yul\":13077:13079   */\n      0x1f\n        /* \"#utility.yul\":13072:13075   */\n      dup3\n        /* \"#utility.yul\":13069:13080   */\n      gt\n        /* \"#utility.yul\":13066:13512   */\n      iszero\n      tag_279\n      jumpi\n        /* \"#utility.yul\":13111:13149   */\n      tag_280\n        /* \"#utility.yul\":13143:13148   */\n      dup2\n        /* \"#utility.yul\":13111:13149   */\n      tag_117\n      jump\t// in\n    tag_280:\n        /* \"#utility.yul\":13195:13224   */\n      tag_281\n        /* \"#utility.yul\":13213:13223   */\n      dup5\n        /* \"#utility.yul\":13195:13224   */\n      tag_118\n      jump\t// in\n    tag_281:\n        /* \"#utility.yul\":13185:13193   */\n      dup2\n        /* \"#utility.yul\":13181:13225   */\n      add\n        /* \"#utility.yul\":13378:13380   */\n      0x20\n        /* \"#utility.yul\":13366:13376   */\n      dup6\n        /* \"#utility.yul\":13363:13381   */\n      lt\n        /* \"#utility.yul\":13360:13409   */\n      iszero\n      tag_282\n      jumpi\n        /* \"#utility.yul\":13399:13407   */\n      dup2\n        /* \"#utility.yul\":13384:13407   */\n      swap1\n      pop\n        /* \"#utility.yul\":13360:13409   */\n    tag_282:\n        /* \"#utility.yul\":13422:13502   */\n      tag_283\n        /* \"#utility.yul\":13478:13500   */\n      tag_284\n        /* \"#utility.yul\":13496:13499   */\n      dup6\n        /* \"#utility.yul\":13478:13500   */\n      tag_118\n      jump\t// in\n    tag_284:\n        /* \"#utility.yul\":13468:13476   */\n      dup4\n        /* \"#utility.yul\":13464:13501   */\n      add\n        /* \"#utility.yul\":13451:13462   */\n      dup3\n        /* \"#utility.yul\":13422:13502   */\n      tag_127\n      jump\t// in\n    tag_283:\n        /* \"#utility.yul\":13081:13512   */\n      pop\n      pop\n        /* \"#utility.yul\":13066:13512   */\n    tag_279:\n        /* \"#utility.yul\":12976:13519   */\n      pop\n      pop\n      pop\n      jump\t// out\n        /* \"#utility.yul\":13525:13642   */\n    tag_129:\n        /* \"#utility.yul\":13579:13587   */\n      0x00\n        /* \"#utility.yul\":13629:13634   */\n      dup3\n        /* \"#utility.yul\":13623:13627   */\n      dup3\n        /* \"#utility.yul\":13619:13635   */\n      shr\n        /* \"#utility.yul\":13598:13635   */\n      swap1\n      pop\n        /* \"#utility.yul\":13525:13642   */\n      swap3\n      swap2\n      pop\n      pop\n      jump\t// out\n        /* \"#utility.yul\":13648:13817   */\n    tag_130:\n        /* \"#utility.yul\":13692:13698   */\n      0x00\n        /* \"#utility.yul\":13725:13776   */\n      tag_287\n        /* \"#utility.yul\":13773:13774   */\n      0x00\n        /* \"#utility.yul\":13769:13775   */\n      not\n        /* \"#utility.yul\":13761:13766   */\n      dup5\n        /* \"#utility.yul\":13758:13759   */\n      0x08\n        /* \"#utility.yul\":13754:13767   */\n      mul\n        /* \"#utility.yul\":13725:13776   */\n      tag_129\n      jump\t// in\n    tag_287:\n        /* \"#utility.yul\":13721:13777   */\n      not\n        /* \"#utility.yul\":13806:13810   */\n      dup1\n        /* \"#utility.yul\":13800:13804   */\n      dup4\n        /* \"#utility.yul\":13796:13811   */\n      and\n        /* \"#utility.yul\":13786:13811   */\n      swap2\n      pop\n        /* \"#utility.yul\":13699:13817   */\n      pop\n        /* \"#utility.yul\":13648:13817   */\n      swap3\n      swap2\n      pop\n      pop\n      jump\t// out\n        /* \"#utility.yul\":13822:14117   */\n    tag_131:\n        /* \"#utility.yul\":13898:13902   */\n      0x00\n        /* \"#utility.yul\":14044:14073   */\n      tag_289\n        /* \"#utility.yul\":14069:14072   */\n      dup4\n        /* \"#utility.yul\":14063:14067   */\n      dup4\n        /* \"#utility.yul\":14044:14073   */\n      tag_130\n      jump\t// in\n    tag_289:\n        /* \"#utility.yul\":14036:14073   */\n      swap2\n      pop\n        /* \"#utility.yul\":14106:14109   */\n      dup3\n        /* \"#utility.yul\":14103:14104   */\n      0x02\n        /* \"#utility.yul\":14099:14110   */\n      mul\n        /* \"#utility.yul\":14093:14097   */\n      dup3\n        /* \"#utility.yul\":14090:14111   */\n      or\n        /* \"#utility.yul\":14082:14111   */\n      swap1\n      pop\n        /* \"#utility.yul\":13822:14117   */\n      swap3\n      swap2\n      pop\n      pop\n      jump\t// out\n        /* \"#utility.yul\":14122:15517   */\n    tag_65:\n        /* \"#utility.yul\":14239:14276   */\n      tag_291\n        /* \"#utility.yul\":14272:14275   */\n      dup3\n        /* \"#utility.yul\":14239:14276   */\n      tag_90\n      jump\t// in\n    tag_291:\n        /* \"#utility.yul\":14341:14359   */\n      0xffffffffffffffff\n        /* \"#utility.yul\":14333:14339   */\n      dup2\n        /* \"#utility.yul\":14330:14360   */\n      gt\n        /* \"#utility.yul\":14327:14383   */\n      iszero\n      tag_292\n      jumpi\n        /* \"#utility.yul\":14363:14381   */\n      tag_293\n      tag_101\n      jump\t// in\n    tag_293:\n        /* \"#utility.yul\":14327:14383   */\n    tag_292:\n        /* \"#utility.yul\":14407:14445   */\n      tag_294\n        /* \"#utility.yul\":14439:14443   */\n      dup3\n        /* \"#utility.yul\":14433:14444   */\n      sload\n        /* \"#utility.yul\":14407:14445   */\n      tag_47\n      jump\t// in\n    tag_294:\n        /* \"#utility.yul\":14492:14559   */\n      tag_295\n        /* \"#utility.yul\":14552:14558   */\n      dup3\n        /* \"#utility.yul\":14544:14550   */\n      dup3\n        /* \"#utility.yul\":14538:14542   */\n      dup6\n        /* \"#utility.yul\":14492:14559   */\n      tag_128\n      jump\t// in\n    tag_295:\n        /* \"#utility.yul\":14586:14587   */\n      0x00\n        /* \"#utility.yul\":14610:14614   */\n      0x20\n        /* \"#utility.yul\":14597:14614   */\n      swap1\n      pop\n        /* \"#utility.yul\":14642:14644   */\n      0x1f\n        /* \"#utility.yul\":14634:14640   */\n      dup4\n        /* \"#utility.yul\":14631:14645   */\n      gt\n        /* \"#utility.yul\":14659:14660   */\n      0x01\n        /* \"#utility.yul\":14654:15272   */\n      dup2\n      eq\n      tag_297\n      jumpi\n        /* \"#utility.yul\":15316:15317   */\n      0x00\n        /* \"#utility.yul\":15333:15339   */\n      dup5\n        /* \"#utility.yul\":15330:15407   */\n      iszero\n      tag_298\n      jumpi\n        /* \"#utility.yul\":15382:15391   */\n      dup3\n        /* \"#utility.yul\":15377:15380   */\n      dup8\n        /* \"#utility.yul\":15373:15392   */\n      add\n        /* \"#utility.yul\":15367:15393   */\n      mload\n        /* \"#utility.yul\":15358:15393   */\n      swap1\n      pop\n        /* \"#utility.yul\":15330:15407   */\n    tag_298:\n        /* \"#utility.yul\":15433:15500   */\n      tag_299\n        /* \"#utility.yul\":15493:15499   */\n      dup6\n        /* \"#utility.yul\":15486:15491   */\n      dup3\n        /* \"#utility.yul\":15433:15500   */\n      tag_131\n      jump\t// in\n    tag_299:\n        /* \"#utility.yul\":15427:15431   */\n      dup7\n        /* \"#utility.yul\":15420:15501   */\n      sstore\n        /* \"#utility.yul\":15289:15511   */\n      pop\n        /* \"#utility.yul\":14624:15511   */\n      jump(tag_296)\n        /* \"#utility.yul\":14654:15272   */\n    tag_297:\n        /* \"#utility.yul\":14706:14710   */\n      0x1f\n        /* \"#utility.yul\":14702:14711   */\n      not\n        /* \"#utility.yul\":14694:14700   */\n      dup5\n        /* \"#utility.yul\":14690:14712   */\n      and\n        /* \"#utility.yul\":14740:14777   */\n      tag_300\n        /* \"#utility.yul\":14772:14776   */\n      dup7\n        /* \"#utility.yul\":14740:14777   */\n      tag_117\n      jump\t// in\n    tag_300:\n        /* \"#utility.yul\":14799:14800   */\n      0x00\n        /* \"#utility.yul\":14813:15021   */\n    tag_301:\n        /* \"#utility.yul\":14827:14834   */\n      dup3\n        /* \"#utility.yul\":14824:14825   */\n      dup2\n        /* \"#utility.yul\":14821:14835   */\n      lt\n        /* \"#utility.yul\":14813:15021   */\n      iszero\n      tag_303\n      jumpi\n        /* \"#utility.yul\":14906:14915   */\n      dup5\n        /* \"#utility.yul\":14901:14904   */\n      dup10\n        /* \"#utility.yul\":14897:14916   */\n      add\n        /* \"#utility.yul\":14891:14917   */\n      mload\n        /* \"#utility.yul\":14883:14889   */\n      dup3\n        /* \"#utility.yul\":14876:14918   */\n      sstore\n        /* \"#utility.yul\":14957:14958   */\n      0x01\n        /* \"#utility.yul\":14949:14955   */\n      dup3\n        /* \"#utility.yul\":14945:14959   */\n      add\n        /* \"#utility.yul\":14935:14959   */\n      swap2\n      pop\n        /* \"#utility.yul\":15004:15006   */\n      0x20\n        /* \"#utility.yul\":14993:15002   */\n      dup6\n        /* \"#utility.yul\":14989:15007   */\n      add\n        /* \"#utility.yul\":14976:15007   */\n      swap5\n      pop\n        /* \"#utility.yul\":14850:14854   */\n      0x20\n        /* \"#utility.yul\":14847:14848   */\n      dup2\n        /* \"#utility.yul\":14843:14855   */\n      add\n        /* \"#utility.yul\":14838:14855   */\n      swap1\n      pop\n        /* \"#utility.yul\":14813:15021   */\n      jump(tag_301)\n    tag_303:\n        /* \"#utility.yul\":15049:15055   */\n      dup7\n        /* \"#utility.yul\":15040:15047   */\n      dup4\n        /* \"#utility.yul\":15037:15056   */\n      lt\n        /* \"#utility.yul\":15034:15213   */\n      iszero\n      tag_304\n      jumpi\n        /* \"#utility.yul\":15107:15116   */\n      dup5\n        /* \"#utility.yul\":15102:15105   */\n      dup10\n        /* \"#utility.yul\":15098:15117   */\n      add\n        /* \"#utility.yul\":15092:15118   */\n      mload\n        /* \"#utility.yul\":15150:15198   */\n      tag_305\n        /* \"#utility.yul\":15192:15196   */\n      0x1f\n        /* \"#utility.yul\":15184:15190   */\n      dup10\n        /* \"#utility.yul\":15180:15197   */\n      and\n        /* \"#utility.yul\":15169:15178   */\n      dup3\n        /* \"#utility.yul\":15150:15198   */\n      tag_130\n      jump\t// in\n    tag_305:\n        /* \"#utility.yul\":15142:15148   */\n      dup4\n        /* \"#utility.yul\":15135:15199   */\n      sstore\n        /* \"#utility.yul\":15057:15213   */\n      pop\n        /* \"#utility.yul\":15034:15213   */\n    tag_304:\n        /* \"#utility.yul\":15259:15260   */\n      0x01\n        /* \"#utility.yul\":15255:15256   */\n      0x02\n        /* \"#utility.yul\":15247:15253   */\n      dup9\n        /* \"#utility.yul\":15243:15257   */\n      mul\n        /* \"#utility.yul\":15239:15261   */\n      add\n        /* \"#utility.yul\":15233:15237   */\n      dup9\n        /* \"#utility.yul\":15226:15262   */\n      sstore\n        /* \"#utility.yul\":14661:15272   */\n      pop\n      pop\n      pop\n        /* \"#utility.yul\":14624:15511   */\n    tag_296:\n      pop\n        /* \"#utility.yul\":14214:15517   */\n      pop\n      pop\n      pop\n        /* \"#utility.yul\":14122:15517   */\n      pop\n      pop\n      jump\t// out\n        /* \"#utility.yul\":15523:15703   */\n    tag_132:\n        /* \"#utility.yul\":15571:15648   */\n      0x4e487b7100000000000000000000000000000000000000000000000000000000\n        /* \"#utility.yul\":15568:15569   */\n      0x00\n        /* \"#utility.yul\":15561:15649   */\n      mstore\n        /* \"#utility.yul\":15668:15672   */\n      0x11\n        /* \"#utility.yul\":15665:15666   */\n      0x04\n        /* \"#utility.yul\":15658:15673   */\n      mstore\n        /* \"#utility.yul\":15692:15696   */\n      0x24\n        /* \"#utility.yul\":15689:15690   */\n      0x00\n        /* \"#utility.yul\":15682:15697   */\n      revert\n        /* \"#utility.yul\":15709:15942   */\n    tag_68:\n        /* \"#utility.yul\":15748:15751   */\n      0x00\n        /* \"#utility.yul\":15771:15795   */\n      tag_308\n        /* \"#utility.yul\":15789:15794   */\n      dup3\n        /* \"#utility.yul\":15771:15795   */\n      tag_87\n      jump\t// in\n    tag_308:\n        /* \"#utility.yul\":15762:15795   */\n      swap2\n      pop\n        /* \"#utility.yul\":15817:15883   */\n      0xffffffffffffffffffffffffffffffffffffffffffffffffffffffffffffffff\n        /* \"#utility.yul\":15810:15815   */\n      dup3\n        /* \"#utility.yul\":15807:15884   */\n      sub\n        /* \"#utility.yul\":15804:15907   */\n      tag_309\n      jumpi\n        /* \"#utility.yul\":15887:15905   */\n      tag_310\n      tag_132\n      jump\t// in\n    tag_310:\n        /* \"#utility.yul\":15804:15907   */\n    tag_309:\n        /* \"#utility.yul\":15934:15935   */\n      0x01\n        /* \"#utility.yul\":15927:15932   */\n      dup3\n        /* \"#utility.yul\":15923:15936   */\n      add\n        /* \"#utility.yul\":15916:15936   */\n      swap1\n      pop\n        /* \"#utility.yul\":15709:15942   */\n      swap2\n      swap1\n      pop\n      jump\t// out\n        /* \"#utility.yul\":15948:16115   */\n    tag_133:\n        /* \"#utility.yul\":16088:16107   */\n      0x4576656e74206e6520706f73746f6a692e000000000000000000000000000000\n        /* \"#utility.yul\":16084:16085   */\n      0x00\n        /* \"#utility.yul\":16076:16082   */\n      dup3\n        /* \"#utility.yul\":16072:16086   */\n      add\n        /* \"#utility.yul\":16065:16108   */\n      mstore\n        /* \"#utility.yul\":15948:16115   */\n      pop\n      jump\t// out\n        /* \"#utility.yul\":16121:16487   */\n    tag_134:\n        /* \"#utility.yul\":16263:16266   */\n      0x00\n        /* \"#utility.yul\":16284:16351   */\n      tag_313\n        /* \"#utility.yul\":16348:16350   */\n      0x11\n        /* \"#utility.yul\":16343:16346   */\n      dup4\n        /* \"#utility.yul\":16284:16351   */\n      tag_91\n      jump\t// in\n    tag_313:\n        /* \"#utility.yul\":16277:16351   */\n      swap2\n      pop\n        /* \"#utility.yul\":16360:16453   */\n      tag_314\n        /* \"#utility.yul\":16449:16452   */\n      dup3\n        /* \"#utility.yul\":16360:16453   */\n      tag_133\n      jump\t// in\n    tag_314:\n        /* \"#utility.yul\":16478:16480   */\n      0x20\n        /* \"#utility.yul\":16473:16476   */\n      dup3\n        /* \"#utility.yul\":16469:16481   */\n      add\n        /* \"#utility.yul\":16462:16481   */\n      swap1\n      pop\n        /* \"#utility.yul\":16121:16487   */\n      swap2\n      swap1\n      pop\n      jump\t// out\n        /* \"#utility.yul\":16493:16912   */\n    tag_72:\n        /* \"#utility.yul\":16659:16663   */\n      0x00\n        /* \"#utility.yul\":16697:16699   */\n      0x20\n        /* \"#utility.yul\":16686:16695   */\n      dup3\n        /* \"#utility.yul\":16682:16700   */\n      add\n        /* \"#utility.yul\":16674:16700   */\n      swap1\n      pop\n        /* \"#utility.yul\":16746:16755   */\n      dup2\n        /* \"#utility.yul\":16740:16744   */\n      dup2\n        /* \"#utility.yul\":16736:16756   */\n      sub\n        /* \"#utility.yul\":16732:16733   */\n      0x00\n        /* \"#utility.yul\":16721:16730   */\n      dup4\n        /* \"#utility.yul\":16717:16734   */\n      add\n        /* \"#utility.yul\":16710:16757   */\n      mstore\n        /* \"#utility.yul\":16774:16905   */\n      tag_316\n        /* \"#utility.yul\":16900:16904   */\n      dup2\n        /* \"#utility.yul\":16774:16905   */\n      tag_134\n      jump\t// in\n    tag_316:\n        /* \"#utility.yul\":16766:16905   */\n      swap1\n      pop\n        /* \"#utility.yul\":16493:16912   */\n      swap2\n      swap1\n      pop\n      jump\t// out\n        /* \"#utility.yul\":16918:17092   */\n    tag_135:\n        /* \"#utility.yul\":17058:17084   */\n      0x4e656d6120646f737475706e696820756c617a6e6963612e0000000000000000\n        /* \"#utility.yul\":17054:17055   */\n      0x00\n        /* \"#utility.yul\":17046:17052   */\n      dup3\n        /* \"#utility.yul\":17042:17056   */\n      add\n        /* \"#utility.yul\":17035:17085   */\n      mstore\n        /* \"#utility.yul\":16918:17092   */\n      pop\n      jump\t// out\n        /* \"#utility.yul\":17098:17464   */\n    tag_136:\n        /* \"#utility.yul\":17240:17243   */\n      0x00\n        /* \"#utility.yul\":17261:17328   */\n      tag_319\n        /* \"#utility.yul\":17325:17327   */\n      0x18\n        /* \"#utility.yul\":17320:17323   */\n      dup4\n        /* \"#utility.yul\":17261:17328   */\n      tag_91\n      jump\t// in\n    tag_319:\n        /* \"#utility.yul\":17254:17328   */\n      swap2\n      pop\n        /* \"#utility.yul\":17337:17430   */\n      tag_320\n        /* \"#utility.yul\":17426:17429   */\n      dup3\n        /* \"#utility.yul\":17337:17430   */\n      tag_135\n      jump\t// in\n    tag_320:\n        /* \"#utility.yul\":17455:17457   */\n      0x20\n        /* \"#utility.yul\":17450:17453   */\n      dup3\n        /* \"#utility.yul\":17446:17458   */\n      add\n        /* \"#utility.yul\":17439:17458   */\n      swap1\n      pop\n        /* \"#utility.yul\":17098:17464   */\n      swap2\n      swap1\n      pop\n      jump\t// out\n        /* \"#utility.yul\":17470:17889   */\n    tag_75:\n        /* \"#utility.yul\":17636:17640   */\n      0x00\n        /* \"#utility.yul\":17674:17676   */\n      0x20\n        /* \"#utility.yul\":17663:17672   */\n      dup3\n        /* \"#utility.yul\":17659:17677   */\n      add\n        /* \"#utility.yul\":17651:17677   */\n      swap1\n      pop\n        /* \"#utility.yul\":17723:17732   */\n      dup2\n        /* \"#utility.yul\":17717:17721   */\n      dup2\n        /* \"#utility.yul\":17713:17733   */\n      sub\n        /* \"#utility.yul\":17709:17710   */\n      0x00\n        /* \"#utility.yul\":17698:17707   */\n      dup4\n        /* \"#utility.yul\":17694:17711   */\n      add\n        /* \"#utility.yul\":17687:17734   */\n      mstore\n        /* \"#utility.yul\":17751:17882   */\n      tag_322\n        /* \"#utility.yul\":17877:17881   */\n      dup2\n        /* \"#utility.yul\":17751:17882   */\n      tag_136\n      jump\t// in\n    tag_322:\n        /* \"#utility.yul\":17743:17882   */\n      swap1\n      pop\n        /* \"#utility.yul\":17470:17889   */\n      swap2\n      swap1\n      pop\n      jump\t// out\n        /* \"#utility.yul\":17895:18070   */\n    tag_137:\n        /* \"#utility.yul\":18035:18062   */\n      0x506f677265736e612063696a656e6120756c617a6e6963652e00000000000000\n        /* \"#utility.yul\":18031:18032   */\n      0x00\n        /* \"#utility.yul\":18023:18029   */\n      dup3\n        /* \"#utility.yul\":18019:18033   */\n      add\n        /* \"#utility.yul\":18012:18063   */\n      mstore\n        /* \"#utility.yul\":17895:18070   */\n      pop\n      jump\t// out\n        /* \"#utility.yul\":18076:18442   */\n    tag_138:\n        /* \"#utility.yul\":18218:18221   */\n      0x00\n        /* \"#utility.yul\":18239:18306   */\n      tag_325\n        /* \"#utility.yul\":18303:18305   */\n      0x19\n        /* \"#utility.yul\":18298:18301   */\n      dup4\n        /* \"#utility.yul\":18239:18306   */\n      tag_91\n      jump\t// in\n    tag_325:\n        /* \"#utility.yul\":18232:18306   */\n      swap2\n      pop\n        /* \"#utility.yul\":18315:18408   */\n      tag_326\n        /* \"#utility.yul\":18404:18407   */\n      dup3\n        /* \"#utility.yul\":18315:18408   */\n      tag_137\n      jump\t// in\n    tag_326:\n        /* \"#utility.yul\":18433:18435   */\n      0x20\n        /* \"#utility.yul\":18428:18431   */\n      dup3\n        /* \"#utility.yul\":18424:18436   */\n      add\n        /* \"#utility.yul\":18417:18436   */\n      swap1\n      pop\n        /* \"#utility.yul\":18076:18442   */\n      swap2\n      swap1\n      pop\n      jump\t// out\n        /* \"#utility.yul\":18448:18867   */\n    tag_78:\n        /* \"#utility.yul\":18614:18618   */\n      0x00\n        /* \"#utility.yul\":18652:18654   */\n      0x20\n        /* \"#utility.yul\":18641:18650   */\n      dup3\n        /* \"#utility.yul\":18637:18655   */\n      add\n        /* \"#utility.yul\":18629:18655   */\n      swap1\n      pop\n        /* \"#utility.yul\":18701:18710   */\n      dup2\n        /* \"#utility.yul\":18695:18699   */\n      dup2\n        /* \"#utility.yul\":18691:18711   */\n      sub\n        /* \"#utility.yul\":18687:18688   */\n      0x00\n        /* \"#utility.yul\":18676:18685   */\n      dup4\n        /* \"#utility.yul\":18672:18689   */\n      add\n        /* \"#utility.yul\":18665:18712   */\n      mstore\n        /* \"#utility.yul\":18729:18860   */\n      tag_328\n        /* \"#utility.yul\":18855:18859   */\n      dup2\n        /* \"#utility.yul\":18729:18860   */\n      tag_138\n      jump\t// in\n    tag_328:\n        /* \"#utility.yul\":18721:18860   */\n      swap1\n      pop\n        /* \"#utility.yul\":18448:18867   */\n      swap2\n      swap1\n      pop\n      jump\t// out\n\n    auxdata: 0xa26469706673582212204bdd180f3658ea51252a14f639bf56eaaea36f5241fbb9b9ed18d1ae5acec9e864736f6c63430008140033\n}\n",
				"bytecode": {
					"linkReferences": {},
					"object": "60806040526001600355600160045534801561001a57600080fd5b506112948061002a6000396000f3fe6080604052600436106100705760003560e01c80636031a52f1161004e5780636031a52f1461012057806367dd74ca1461014b5780639f9d903a14610167578063f0ab716b1461019257610070565b80630b791430146100755780633c2fc56c146100b857806350b44712146100e1575b600080fd5b34801561008157600080fd5b5061009c60048036038101906100979190610856565b6101cf565b6040516100af9796959493929190610963565b60405180910390f35b3480156100c457600080fd5b506100df60048036038101906100da9190610b15565b610341565b005b3480156100ed57600080fd5b5061010860048036038101906101039190610856565b6104e2565b60405161011793929190610be3565b60405180910390f35b34801561012c57600080fd5b50610135610539565b6040516101429190610c1a565b60405180910390f35b61016560048036038101906101609190610856565b61053f565b005b34801561017357600080fd5b5061017c6107d5565b6040516101899190610c1a565b60405180910390f35b34801561019e57600080fd5b506101b960048036038101906101b49190610c61565b6107db565b6040516101c69190610c1a565b60405180910390f35b60006020528060005260406000206000915090508060000180546101f290610cd0565b80601f016020809104026020016040519081016040528092919081815260200182805461021e90610cd0565b801561026b5780601f106102405761010080835404028352916020019161026b565b820191906000526020600020905b81548152906001019060200180831161024e57829003601f168201915b50505050509080600101805461028090610cd0565b80601f01602080910402602001604051908101604052809291908181526020018280546102ac90610cd0565b80156102f95780601f106102ce576101008083540402835291602001916102f9565b820191906000526020600020905b8154815290600101906020018083116102dc57829003601f168201915b5050505050908060020154908060030154908060040154908060050160009054906101000a900473ffffffffffffffffffffffffffffffffffffffff16908060060154905087565b60008211610384576040517f08c379a000000000000000000000000000000000000000000000000000000000815260040161037b90610d73565b60405180910390fd5b600081116103c7576040517f08c379a00000000000000000000000000000000000000000000000000000000081526004016103be90610e05565b60405180910390fd5b6040518060e001604052808681526020018581526020018481526020018381526020018281526020013373ffffffffffffffffffffffffffffffffffffffff16815260200160008152506000806003548152602001908152602001600020600082015181600001908161043a9190610fd1565b5060208201518160010190816104509190610fd1565b5060408201518160020155606082015181600301556080820151816004015560a08201518160050160006101000a81548173ffffffffffffffffffffffffffffffffffffffff021916908373ffffffffffffffffffffffffffffffffffffffff16021790555060c08201518160060155905050600360008154809291906104d6906110d2565b91905055505050505050565b60016020528060005260406000206000915090508060000154908060010160009054906101000a900473ffffffffffffffffffffffffffffffffffffffff16908060010160149054906101000a900460ff16905083565b60045481565b60008060008381526020019081526020016000209050600073ffffffffffffffffffffffffffffffffffffffff168160050160009054906101000a900473ffffffffffffffffffffffffffffffffffffffff1673ffffffffffffffffffffffffffffffffffffffff16036105e8576040517f08c379a00000000000000000000000000000000000000000000000000000000081526004016105df90611166565b60405180910390fd5b8060030154816006015410610632576040517f08c379a0000000000000000000000000000000000000000000000000000000008152600401610629906111d2565b60405180910390fd5b80600401543414610678576040517f08c379a000000000000000000000000000000000000000000000000000000000815260040161066f9061123e565b60405180910390fd5b604051806060016040528060045481526020013373ffffffffffffffffffffffffffffffffffffffff168152602001600015158152506001600060045481526020019081526020016000206000820151816000015560208201518160010160006101000a81548173ffffffffffffffffffffffffffffffffffffffff021916908373ffffffffffffffffffffffffffffffffffffffff16021790555060408201518160010160146101000a81548160ff021916908315150217905550905050600260003373ffffffffffffffffffffffffffffffffffffffff1673ffffffffffffffffffffffffffffffffffffffff16815260200190815260200160002060045490806001815401808255809150506001900390600052602060002001600090919091909150558060060160008154809291906107b4906110d2565b9190505550600460008154809291906107cc906110d2565b91905055505050565b60035481565b600260205281600052604060002081815481106107f757600080fd5b90600052602060002001600091509150505481565b6000604051905090565b600080fd5b600080fd5b6000819050919050565b61083381610820565b811461083e57600080fd5b50565b6000813590506108508161082a565b92915050565b60006020828403121561086c5761086b610816565b5b600061087a84828501610841565b91505092915050565b600081519050919050565b600082825260208201905092915050565b60005b838110156108bd5780820151818401526020810190506108a2565b60008484015250505050565b6000601f19601f8301169050919050565b60006108e582610883565b6108ef818561088e565b93506108ff81856020860161089f565b610908816108c9565b840191505092915050565b61091c81610820565b82525050565b600073ffffffffffffffffffffffffffffffffffffffff82169050919050565b600061094d82610922565b9050919050565b61095d81610942565b82525050565b600060e082019050818103600083015261097d818a6108da565b9050818103602083015261099181896108da565b90506109a06040830188610913565b6109ad6060830187610913565b6109ba6080830186610913565b6109c760a0830185610954565b6109d460c0830184610913565b98975050505050505050565b600080fd5b600080fd5b7f4e487b7100000000000000000000000000000000000000000000000000000000600052604160045260246000fd5b610a22826108c9565b810181811067ffffffffffffffff82111715610a4157610a406109ea565b5b80604052505050565b6000610a5461080c565b9050610a608282610a19565b919050565b600067ffffffffffffffff821115610a8057610a7f6109ea565b5b610a89826108c9565b9050602081019050919050565b82818337600083830152505050565b6000610ab8610ab384610a65565b610a4a565b905082815260208101848484011115610ad457610ad36109e5565b5b610adf848285610a96565b509392505050565b600082601f830112610afc57610afb6109e0565b5b8135610b0c848260208601610aa5565b91505092915050565b600080600080600060a08688031215610b3157610b30610816565b5b600086013567ffffffffffffffff811115610b4f57610b4e61081b565b5b610b5b88828901610ae7565b955050602086013567ffffffffffffffff811115610b7c57610b7b61081b565b5b610b8888828901610ae7565b9450506040610b9988828901610841565b9350506060610baa88828901610841565b9250506080610bbb88828901610841565b9150509295509295909350565b60008115159050919050565b610bdd81610bc8565b82525050565b6000606082019050610bf86000830186610913565b610c056020830185610954565b610c126040830184610bd4565b949350505050565b6000602082019050610c2f6000830184610913565b92915050565b610c3e81610942565b8114610c4957600080fd5b50565b600081359050610c5b81610c35565b92915050565b60008060408385031215610c7857610c77610816565b5b6000610c8685828601610c4c565b9250506020610c9785828601610841565b9150509250929050565b7f4e487b7100000000000000000000000000000000000000000000000000000000600052602260045260246000fd5b60006002820490506001821680610ce857607f821691505b602082108103610cfb57610cfa610ca1565b5b50919050565b7f42726f6a20756c617a6e696361206d6f726120626974692076656369206f642060008201527f302e000000000000000000000000000000000000000000000000000000000000602082015250565b6000610d5d60228361088e565b9150610d6882610d01565b604082019050919050565b60006020820190508181036000830152610d8c81610d50565b9050919050565b7f43696a656e6120756c617a6e696365206d6f726120626974692076656361206f60008201527f6420302e00000000000000000000000000000000000000000000000000000000602082015250565b6000610def60248361088e565b9150610dfa82610d93565b604082019050919050565b60006020820190508181036000830152610e1e81610de2565b9050919050565b60008190508160005260206000209050919050565b60006020601f8301049050919050565b600082821b905092915050565b600060088302610e877fffffffffffffffffffffffffffffffffffffffffffffffffffffffffffffffff82610e4a565b610e918683610e4a565b95508019841693508086168417925050509392505050565b6000819050919050565b6000610ece610ec9610ec484610820565b610ea9565b610820565b9050919050565b6000819050919050565b610ee883610eb3565b610efc610ef482610ed5565b848454610e57565b825550505050565b600090565b610f11610f04565b610f1c818484610edf565b505050565b5b81811015610f4057610f35600082610f09565b600181019050610f22565b5050565b601f821115610f8557610f5681610e25565b610f5f84610e3a565b81016020851015610f6e578190505b610f82610f7a85610e3a565b830182610f21565b50505b505050565b600082821c905092915050565b6000610fa860001984600802610f8a565b1980831691505092915050565b6000610fc18383610f97565b9150826002028217905092915050565b610fda82610883565b67ffffffffffffffff811115610ff357610ff26109ea565b5b610ffd8254610cd0565b611008828285610f44565b600060209050601f83116001811461103b5760008415611029578287015190505b6110338582610fb5565b86555061109b565b601f19841661104986610e25565b60005b828110156110715784890151825560018201915060208501945060208101905061104c565b8683101561108e578489015161108a601f891682610f97565b8355505b6001600288020188555050505b505050505050565b7f4e487b7100000000000000000000000000000000000000000000000000000000600052601160045260246000fd5b60006110dd82610820565b91507fffffffffffffffffffffffffffffffffffffffffffffffffffffffffffffffff820361110f5761110e6110a3565b5b600182019050919050565b7f4576656e74206e6520706f73746f6a692e000000000000000000000000000000600082015250565b600061115060118361088e565b915061115b8261111a565b602082019050919050565b6000602082019050818103600083015261117f81611143565b9050919050565b7f4e656d6120646f737475706e696820756c617a6e6963612e0000000000000000600082015250565b60006111bc60188361088e565b91506111c782611186565b602082019050919050565b600060208201905081810360008301526111eb816111af565b9050919050565b7f506f677265736e612063696a656e6120756c617a6e6963652e00000000000000600082015250565b600061122860198361088e565b9150611233826111f2565b602082019050919050565b600060208201905081810360008301526112578161121b565b905091905056fea26469706673582212204bdd180f3658ea51252a14f639bf56eaaea36f5241fbb9b9ed18d1ae5acec9e864736f6c63430008140033",
					"opcodes": "PUSH1 0x80 PUSH1 0x40 MSTORE PUSH1 0x1 PUSH1 0x3 SSTORE PUSH1 0x1 PUSH1 0x4 SSTORE CALLVALUE DUP1 ISZERO PUSH2 0x1A JUMPI PUSH1 0x0 DUP1 REVERT JUMPDEST POP PUSH2 0x1294 DUP1 PUSH2 0x2A PUSH1 0x0 CODECOPY PUSH1 0x0 RETURN INVALID PUSH1 0x80 PUSH1 0x40 MSTORE PUSH1 0x4 CALLDATASIZE LT PUSH2 0x70 JUMPI PUSH1 0x0 CALLDATALOAD PUSH1 0xE0 SHR DUP1 PUSH4 0x6031A52F GT PUSH2 0x4E JUMPI DUP1 PUSH4 0x6031A52F EQ PUSH2 0x120 JUMPI DUP1 PUSH4 0x67DD74CA EQ PUSH2 0x14B JUMPI DUP1 PUSH4 0x9F9D903A EQ PUSH2 0x167 JUMPI DUP1 PUSH4 0xF0AB716B EQ PUSH2 0x192 JUMPI PUSH2 0x70 JUMP JUMPDEST DUP1 PUSH4 0xB791430 EQ PUSH2 0x75 JUMPI DUP1 PUSH4 0x3C2FC56C EQ PUSH2 0xB8 JUMPI DUP1 PUSH4 0x50B44712 EQ PUSH2 0xE1 JUMPI JUMPDEST PUSH1 0x0 DUP1 REVERT JUMPDEST CALLVALUE DUP1 ISZERO PUSH2 0x81 JUMPI PUSH1 0x0 DUP1 REVERT JUMPDEST POP PUSH2 0x9C PUSH1 0x4 DUP1 CALLDATASIZE SUB DUP2 ADD SWAP1 PUSH2 0x97 SWAP2 SWAP1 PUSH2 0x856 JUMP JUMPDEST PUSH2 0x1CF JUMP JUMPDEST PUSH1 0x40 MLOAD PUSH2 0xAF SWAP8 SWAP7 SWAP6 SWAP5 SWAP4 SWAP3 SWAP2 SWAP1 PUSH2 0x963 JUMP JUMPDEST PUSH1 0x40 MLOAD DUP1 SWAP2 SUB SWAP1 RETURN JUMPDEST CALLVALUE DUP1 ISZERO PUSH2 0xC4 JUMPI PUSH1 0x0 DUP1 REVERT JUMPDEST POP PUSH2 0xDF PUSH1 0x4 DUP1 CALLDATASIZE SUB DUP2 ADD SWAP1 PUSH2 0xDA SWAP2 SWAP1 PUSH2 0xB15 JUMP JUMPDEST PUSH2 0x341 JUMP JUMPDEST STOP JUMPDEST CALLVALUE DUP1 ISZERO PUSH2 0xED JUMPI PUSH1 0x0 DUP1 REVERT JUMPDEST POP PUSH2 0x108 PUSH1 0x4 DUP1 CALLDATASIZE SUB DUP2 ADD SWAP1 PUSH2 0x103 SWAP2 SWAP1 PUSH2 0x856 JUMP JUMPDEST PUSH2 0x4E2 JUMP JUMPDEST PUSH1 0x40 MLOAD PUSH2 0x117 SWAP4 SWAP3 SWAP2 SWAP1 PUSH2 0xBE3 JUMP JUMPDEST PUSH1 0x40 MLOAD DUP1 SWAP2 SUB SWAP1 RETURN JUMPDEST CALLVALUE DUP1 ISZERO PUSH2 0x12C JUMPI PUSH1 0x0 DUP1 REVERT JUMPDEST POP PUSH2 0x135 PUSH2 0x539 JUMP JUMPDEST PUSH1 0x40 MLOAD PUSH2 0x142 SWAP2 SWAP1 PUSH2 0xC1A JUMP JUMPDEST PUSH1 0x40 MLOAD DUP1 SWAP2 SUB SWAP1 RETURN JUMPDEST PUSH2 0x165 PUSH1 0x4 DUP1 CALLDATASIZE SUB DUP2 ADD SWAP1 PUSH2 0x160 SWAP2 SWAP1 PUSH2 0x856 JUMP JUMPDEST PUSH2 0x53F JUMP JUMPDEST STOP JUMPDEST CALLVALUE DUP1 ISZERO PUSH2 0x173 JUMPI PUSH1 0x0 DUP1 REVERT JUMPDEST POP PUSH2 0x17C PUSH2 0x7D5 JUMP JUMPDEST PUSH1 0x40 MLOAD PUSH2 0x189 SWAP2 SWAP1 PUSH2 0xC1A JUMP JUMPDEST PUSH1 0x40 MLOAD DUP1 SWAP2 SUB SWAP1 RETURN JUMPDEST CALLVALUE DUP1 ISZERO PUSH2 0x19E JUMPI PUSH1 0x0 DUP1 REVERT JUMPDEST POP PUSH2 0x1B9 PUSH1 0x4 DUP1 CALLDATASIZE SUB DUP2 ADD SWAP1 PUSH2 0x1B4 SWAP2 SWAP1 PUSH2 0xC61 JUMP JUMPDEST PUSH2 0x7DB JUMP JUMPDEST PUSH1 0x40 MLOAD PUSH2 0x1C6 SWAP2 SWAP1 PUSH2 0xC1A JUMP JUMPDEST PUSH1 0x40 MLOAD DUP1 SWAP2 SUB SWAP1 RETURN JUMPDEST PUSH1 0x0 PUSH1 0x20 MSTORE DUP1 PUSH1 0x0 MSTORE PUSH1 0x40 PUSH1 0x0 KECCAK256 PUSH1 0x0 SWAP2 POP SWAP1 POP DUP1 PUSH1 0x0 ADD DUP1 SLOAD PUSH2 0x1F2 SWAP1 PUSH2 0xCD0 JUMP JUMPDEST DUP1 PUSH1 0x1F ADD PUSH1 0x20 DUP1 SWAP2 DIV MUL PUSH1 0x20 ADD PUSH1 0x40 MLOAD SWAP1 DUP2 ADD PUSH1 0x40 MSTORE DUP1 SWAP3 SWAP2 SWAP1 DUP2 DUP2 MSTORE PUSH1 0x20 ADD DUP3 DUP1 SLOAD PUSH2 0x21E SWAP1 PUSH2 0xCD0 JUMP JUMPDEST DUP1 ISZERO PUSH2 0x26B JUMPI DUP1 PUSH1 0x1F LT PUSH2 0x240 JUMPI PUSH2 0x100 DUP1 DUP4 SLOAD DIV MUL DUP4 MSTORE SWAP2 PUSH1 0x20 ADD SWAP2 PUSH2 0x26B JUMP JUMPDEST DUP3 ADD SWAP2 SWAP1 PUSH1 0x0 MSTORE PUSH1 0x20 PUSH1 0x0 KECCAK256 SWAP1 JUMPDEST DUP2 SLOAD DUP2 MSTORE SWAP1 PUSH1 0x1 ADD SWAP1 PUSH1 0x20 ADD DUP1 DUP4 GT PUSH2 0x24E JUMPI DUP3 SWAP1 SUB PUSH1 0x1F AND DUP3 ADD SWAP2 JUMPDEST POP POP POP POP POP SWAP1 DUP1 PUSH1 0x1 ADD DUP1 SLOAD PUSH2 0x280 SWAP1 PUSH2 0xCD0 JUMP JUMPDEST DUP1 PUSH1 0x1F ADD PUSH1 0x20 DUP1 SWAP2 DIV MUL PUSH1 0x20 ADD PUSH1 0x40 MLOAD SWAP1 DUP2 ADD PUSH1 0x40 MSTORE DUP1 SWAP3 SWAP2 SWAP1 DUP2 DUP2 MSTORE PUSH1 0x20 ADD DUP3 DUP1 SLOAD PUSH2 0x2AC SWAP1 PUSH2 0xCD0 JUMP JUMPDEST DUP1 ISZERO PUSH2 0x2F9 JUMPI DUP1 PUSH1 0x1F LT PUSH2 0x2CE JUMPI PUSH2 0x100 DUP1 DUP4 SLOAD DIV MUL DUP4 MSTORE SWAP2 PUSH1 0x20 ADD SWAP2 PUSH2 0x2F9 JUMP JUMPDEST DUP3 ADD SWAP2 SWAP1 PUSH1 0x0 MSTORE PUSH1 0x20 PUSH1 0x0 KECCAK256 SWAP1 JUMPDEST DUP2 SLOAD DUP2 MSTORE SWAP1 PUSH1 0x1 ADD SWAP1 PUSH1 0x20 ADD DUP1 DUP4 GT PUSH2 0x2DC JUMPI DUP3 SWAP1 SUB PUSH1 0x1F AND DUP3 ADD SWAP2 JUMPDEST POP POP POP POP POP SWAP1 DUP1 PUSH1 0x2 ADD SLOAD SWAP1 DUP1 PUSH1 0x3 ADD SLOAD SWAP1 DUP1 PUSH1 0x4 ADD SLOAD SWAP1 DUP1 PUSH1 0x5 ADD PUSH1 0x0 SWAP1 SLOAD SWAP1 PUSH2 0x100 EXP SWAP1 DIV PUSH20 0xFFFFFFFFFFFFFFFFFFFFFFFFFFFFFFFFFFFFFFFF AND SWAP1 DUP1 PUSH1 0x6 ADD SLOAD SWAP1 POP DUP8 JUMP JUMPDEST PUSH1 0x0 DUP3 GT PUSH2 0x384 JUMPI PUSH1 0x40 MLOAD PUSH32 0x8C379A000000000000000000000000000000000000000000000000000000000 DUP2 MSTORE PUSH1 0x4 ADD PUSH2 0x37B SWAP1 PUSH2 0xD73 JUMP JUMPDEST PUSH1 0x40 MLOAD DUP1 SWAP2 SUB SWAP1 REVERT JUMPDEST PUSH1 0x0 DUP2 GT PUSH2 0x3C7 JUMPI PUSH1 0x40 MLOAD PUSH32 0x8C379A000000000000000000000000000000000000000000000000000000000 DUP2 MSTORE PUSH1 0x4 ADD PUSH2 0x3BE SWAP1 PUSH2 0xE05 JUMP JUMPDEST PUSH1 0x40 MLOAD DUP1 SWAP2 SUB SWAP1 REVERT JUMPDEST PUSH1 0x40 MLOAD DUP1 PUSH1 0xE0 ADD PUSH1 0x40 MSTORE DUP1 DUP7 DUP2 MSTORE PUSH1 0x20 ADD DUP6 DUP2 MSTORE PUSH1 0x20 ADD DUP5 DUP2 MSTORE PUSH1 0x20 ADD DUP4 DUP2 MSTORE PUSH1 0x20 ADD DUP3 DUP2 MSTORE PUSH1 0x20 ADD CALLER PUSH20 0xFFFFFFFFFFFFFFFFFFFFFFFFFFFFFFFFFFFFFFFF AND DUP2 MSTORE PUSH1 0x20 ADD PUSH1 0x0 DUP2 MSTORE POP PUSH1 0x0 DUP1 PUSH1 0x3 SLOAD DUP2 MSTORE PUSH1 0x20 ADD SWAP1 DUP2 MSTORE PUSH1 0x20 ADD PUSH1 0x0 KECCAK256 PUSH1 0x0 DUP3 ADD MLOAD DUP2 PUSH1 0x0 ADD SWAP1 DUP2 PUSH2 0x43A SWAP2 SWAP1 PUSH2 0xFD1 JUMP JUMPDEST POP PUSH1 0x20 DUP3 ADD MLOAD DUP2 PUSH1 0x1 ADD SWAP1 DUP2 PUSH2 0x450 SWAP2 SWAP1 PUSH2 0xFD1 JUMP JUMPDEST POP PUSH1 0x40 DUP3 ADD MLOAD DUP2 PUSH1 0x2 ADD SSTORE PUSH1 0x60 DUP3 ADD MLOAD DUP2 PUSH1 0x3 ADD SSTORE PUSH1 0x80 DUP3 ADD MLOAD DUP2 PUSH1 0x4 ADD SSTORE PUSH1 0xA0 DUP3 ADD MLOAD DUP2 PUSH1 0x5 ADD PUSH1 0x0 PUSH2 0x100 EXP DUP2 SLOAD DUP2 PUSH20 0xFFFFFFFFFFFFFFFFFFFFFFFFFFFFFFFFFFFFFFFF MUL NOT AND SWAP1 DUP4 PUSH20 0xFFFFFFFFFFFFFFFFFFFFFFFFFFFFFFFFFFFFFFFF AND MUL OR SWAP1 SSTORE POP PUSH1 0xC0 DUP3 ADD MLOAD DUP2 PUSH1 0x6 ADD SSTORE SWAP1 POP POP PUSH1 0x3 PUSH1 0x0 DUP2 SLOAD DUP1 SWAP3 SWAP2 SWAP1 PUSH2 0x4D6 SWAP1 PUSH2 0x10D2 JUMP JUMPDEST SWAP2 SWAP1 POP SSTORE POP POP POP POP POP POP JUMP JUMPDEST PUSH1 0x1 PUSH1 0x20 MSTORE DUP1 PUSH1 0x0 MSTORE PUSH1 0x40 PUSH1 0x0 KECCAK256 PUSH1 0x0 SWAP2 POP SWAP1 POP DUP1 PUSH1 0x0 ADD SLOAD SWAP1 DUP1 PUSH1 0x1 ADD PUSH1 0x0 SWAP1 SLOAD SWAP1 PUSH2 0x100 EXP SWAP1 DIV PUSH20 0xFFFFFFFFFFFFFFFFFFFFFFFFFFFFFFFFFFFFFFFF AND SWAP1 DUP1 PUSH1 0x1 ADD PUSH1 0x14 SWAP1 SLOAD SWAP1 PUSH2 0x100 EXP SWAP1 DIV PUSH1 0xFF AND SWAP1 POP DUP4 JUMP JUMPDEST PUSH1 0x4 SLOAD DUP2 JUMP JUMPDEST PUSH1 0x0 DUP1 PUSH1 0x0 DUP4 DUP2 MSTORE PUSH1 0x20 ADD SWAP1 DUP2 MSTORE PUSH1 0x20 ADD PUSH1 0x0 KECCAK256 SWAP1 POP PUSH1 0x0 PUSH20 0xFFFFFFFFFFFFFFFFFFFFFFFFFFFFFFFFFFFFFFFF AND DUP2 PUSH1 0x5 ADD PUSH1 0x0 SWAP1 SLOAD SWAP1 PUSH2 0x100 EXP SWAP1 DIV PUSH20 0xFFFFFFFFFFFFFFFFFFFFFFFFFFFFFFFFFFFFFFFF AND PUSH20 0xFFFFFFFFFFFFFFFFFFFFFFFFFFFFFFFFFFFFFFFF AND SUB PUSH2 0x5E8 JUMPI PUSH1 0x40 MLOAD PUSH32 0x8C379A000000000000000000000000000000000000000000000000000000000 DUP2 MSTORE PUSH1 0x4 ADD PUSH2 0x5DF SWAP1 PUSH2 0x1166 JUMP JUMPDEST PUSH1 0x40 MLOAD DUP1 SWAP2 SUB SWAP1 REVERT JUMPDEST DUP1 PUSH1 0x3 ADD SLOAD DUP2 PUSH1 0x6 ADD SLOAD LT PUSH2 0x632 JUMPI PUSH1 0x40 MLOAD PUSH32 0x8C379A000000000000000000000000000000000000000000000000000000000 DUP2 MSTORE PUSH1 0x4 ADD PUSH2 0x629 SWAP1 PUSH2 0x11D2 JUMP JUMPDEST PUSH1 0x40 MLOAD DUP1 SWAP2 SUB SWAP1 REVERT JUMPDEST DUP1 PUSH1 0x4 ADD SLOAD CALLVALUE EQ PUSH2 0x678 JUMPI PUSH1 0x40 MLOAD PUSH32 0x8C379A000000000000000000000000000000000000000000000000000000000 DUP2 MSTORE PUSH1 0x4 ADD PUSH2 0x66F SWAP1 PUSH2 0x123E JUMP JUMPDEST PUSH1 0x40 MLOAD DUP1 SWAP2 SUB SWAP1 REVERT JUMPDEST PUSH1 0x40 MLOAD DUP1 PUSH1 0x60 ADD PUSH1 0x40 MSTORE DUP1 PUSH1 0x4 SLOAD DUP2 MSTORE PUSH1 0x20 ADD CALLER PUSH20 0xFFFFFFFFFFFFFFFFFFFFFFFFFFFFFFFFFFFFFFFF AND DUP2 MSTORE PUSH1 0x20 ADD PUSH1 0x0 ISZERO ISZERO DUP2 MSTORE POP PUSH1 0x1 PUSH1 0x0 PUSH1 0x4 SLOAD DUP2 MSTORE PUSH1 0x20 ADD SWAP1 DUP2 MSTORE PUSH1 0x20 ADD PUSH1 0x0 KECCAK256 PUSH1 0x0 DUP3 ADD MLOAD DUP2 PUSH1 0x0 ADD SSTORE PUSH1 0x20 DUP3 ADD MLOAD DUP2 PUSH1 0x1 ADD PUSH1 0x0 PUSH2 0x100 EXP DUP2 SLOAD DUP2 PUSH20 0xFFFFFFFFFFFFFFFFFFFFFFFFFFFFFFFFFFFFFFFF MUL NOT AND SWAP1 DUP4 PUSH20 0xFFFFFFFFFFFFFFFFFFFFFFFFFFFFFFFFFFFFFFFF AND MUL OR SWAP1 SSTORE POP PUSH1 0x40 DUP3 ADD MLOAD DUP2 PUSH1 0x1 ADD PUSH1 0x14 PUSH2 0x100 EXP DUP2 SLOAD DUP2 PUSH1 0xFF MUL NOT AND SWAP1 DUP4 ISZERO ISZERO MUL OR SWAP1 SSTORE POP SWAP1 POP POP PUSH1 0x2 PUSH1 0x0 CALLER PUSH20 0xFFFFFFFFFFFFFFFFFFFFFFFFFFFFFFFFFFFFFFFF AND PUSH20 0xFFFFFFFFFFFFFFFFFFFFFFFFFFFFFFFFFFFFFFFF AND DUP2 MSTORE PUSH1 0x20 ADD SWAP1 DUP2 MSTORE PUSH1 0x20 ADD PUSH1 0x0 KECCAK256 PUSH1 0x4 SLOAD SWAP1 DUP1 PUSH1 0x1 DUP2 SLOAD ADD DUP1 DUP3 SSTORE DUP1 SWAP2 POP POP PUSH1 0x1 SWAP1 SUB SWAP1 PUSH1 0x0 MSTORE PUSH1 0x20 PUSH1 0x0 KECCAK256 ADD PUSH1 0x0 SWAP1 SWAP2 SWAP1 SWAP2 SWAP1 SWAP2 POP SSTORE DUP1 PUSH1 0x6 ADD PUSH1 0x0 DUP2 SLOAD DUP1 SWAP3 SWAP2 SWAP1 PUSH2 0x7B4 SWAP1 PUSH2 0x10D2 JUMP JUMPDEST SWAP2 SWAP1 POP SSTORE POP PUSH1 0x4 PUSH1 0x0 DUP2 SLOAD DUP1 SWAP3 SWAP2 SWAP1 PUSH2 0x7CC SWAP1 PUSH2 0x10D2 JUMP JUMPDEST SWAP2 SWAP1 POP SSTORE POP POP POP JUMP JUMPDEST PUSH1 0x3 SLOAD DUP2 JUMP JUMPDEST PUSH1 0x2 PUSH1 0x20 MSTORE DUP2 PUSH1 0x0 MSTORE PUSH1 0x40 PUSH1 0x0 KECCAK256 DUP2 DUP2 SLOAD DUP2 LT PUSH2 0x7F7 JUMPI PUSH1 0x0 DUP1 REVERT JUMPDEST SWAP1 PUSH1 0x0 MSTORE PUSH1 0x20 PUSH1 0x0 KECCAK256 ADD PUSH1 0x0 SWAP2 POP SWAP2 POP POP SLOAD DUP2 JUMP JUMPDEST PUSH1 0x0 PUSH1 0x40 MLOAD SWAP1 POP SWAP1 JUMP JUMPDEST PUSH1 0x0 DUP1 REVERT JUMPDEST PUSH1 0x0 DUP1 REVERT JUMPDEST PUSH1 0x0 DUP2 SWAP1 POP SWAP2 SWAP1 POP JUMP JUMPDEST PUSH2 0x833 DUP2 PUSH2 0x820 JUMP JUMPDEST DUP2 EQ PUSH2 0x83E JUMPI PUSH1 0x0 DUP1 REVERT JUMPDEST POP JUMP JUMPDEST PUSH1 0x0 DUP2 CALLDATALOAD SWAP1 POP PUSH2 0x850 DUP2 PUSH2 0x82A JUMP JUMPDEST SWAP3 SWAP2 POP POP JUMP JUMPDEST PUSH1 0x0 PUSH1 0x20 DUP3 DUP5 SUB SLT ISZERO PUSH2 0x86C JUMPI PUSH2 0x86B PUSH2 0x816 JUMP JUMPDEST JUMPDEST PUSH1 0x0 PUSH2 0x87A DUP5 DUP3 DUP6 ADD PUSH2 0x841 JUMP JUMPDEST SWAP2 POP POP SWAP3 SWAP2 POP POP JUMP JUMPDEST PUSH1 0x0 DUP2 MLOAD SWAP1 POP SWAP2 SWAP1 POP JUMP JUMPDEST PUSH1 0x0 DUP3 DUP3 MSTORE PUSH1 0x20 DUP3 ADD SWAP1 POP SWAP3 SWAP2 POP POP JUMP JUMPDEST PUSH1 0x0 JUMPDEST DUP4 DUP2 LT ISZERO PUSH2 0x8BD JUMPI DUP1 DUP3 ADD MLOAD DUP2 DUP5 ADD MSTORE PUSH1 0x20 DUP2 ADD SWAP1 POP PUSH2 0x8A2 JUMP JUMPDEST PUSH1 0x0 DUP5 DUP5 ADD MSTORE POP POP POP POP JUMP JUMPDEST PUSH1 0x0 PUSH1 0x1F NOT PUSH1 0x1F DUP4 ADD AND SWAP1 POP SWAP2 SWAP1 POP JUMP JUMPDEST PUSH1 0x0 PUSH2 0x8E5 DUP3 PUSH2 0x883 JUMP JUMPDEST PUSH2 0x8EF DUP2 DUP6 PUSH2 0x88E JUMP JUMPDEST SWAP4 POP PUSH2 0x8FF DUP2 DUP6 PUSH1 0x20 DUP7 ADD PUSH2 0x89F JUMP JUMPDEST PUSH2 0x908 DUP2 PUSH2 0x8C9 JUMP JUMPDEST DUP5 ADD SWAP2 POP POP SWAP3 SWAP2 POP POP JUMP JUMPDEST PUSH2 0x91C DUP2 PUSH2 0x820 JUMP JUMPDEST DUP3 MSTORE POP POP JUMP JUMPDEST PUSH1 0x0 PUSH20 0xFFFFFFFFFFFFFFFFFFFFFFFFFFFFFFFFFFFFFFFF DUP3 AND SWAP1 POP SWAP2 SWAP1 POP JUMP JUMPDEST PUSH1 0x0 PUSH2 0x94D DUP3 PUSH2 0x922 JUMP JUMPDEST SWAP1 POP SWAP2 SWAP1 POP JUMP JUMPDEST PUSH2 0x95D DUP2 PUSH2 0x942 JUMP JUMPDEST DUP3 MSTORE POP POP JUMP JUMPDEST PUSH1 0x0 PUSH1 0xE0 DUP3 ADD SWAP1 POP DUP2 DUP2 SUB PUSH1 0x0 DUP4 ADD MSTORE PUSH2 0x97D DUP2 DUP11 PUSH2 0x8DA JUMP JUMPDEST SWAP1 POP DUP2 DUP2 SUB PUSH1 0x20 DUP4 ADD MSTORE PUSH2 0x991 DUP2 DUP10 PUSH2 0x8DA JUMP JUMPDEST SWAP1 POP PUSH2 0x9A0 PUSH1 0x40 DUP4 ADD DUP9 PUSH2 0x913 JUMP JUMPDEST PUSH2 0x9AD PUSH1 0x60 DUP4 ADD DUP8 PUSH2 0x913 JUMP JUMPDEST PUSH2 0x9BA PUSH1 0x80 DUP4 ADD DUP7 PUSH2 0x913 JUMP JUMPDEST PUSH2 0x9C7 PUSH1 0xA0 DUP4 ADD DUP6 PUSH2 0x954 JUMP JUMPDEST PUSH2 0x9D4 PUSH1 0xC0 DUP4 ADD DUP5 PUSH2 0x913 JUMP JUMPDEST SWAP9 SWAP8 POP POP POP POP POP POP POP POP JUMP JUMPDEST PUSH1 0x0 DUP1 REVERT JUMPDEST PUSH1 0x0 DUP1 REVERT JUMPDEST PUSH32 0x4E487B7100000000000000000000000000000000000000000000000000000000 PUSH1 0x0 MSTORE PUSH1 0x41 PUSH1 0x4 MSTORE PUSH1 0x24 PUSH1 0x0 REVERT JUMPDEST PUSH2 0xA22 DUP3 PUSH2 0x8C9 JUMP JUMPDEST DUP2 ADD DUP2 DUP2 LT PUSH8 0xFFFFFFFFFFFFFFFF DUP3 GT OR ISZERO PUSH2 0xA41 JUMPI PUSH2 0xA40 PUSH2 0x9EA JUMP JUMPDEST JUMPDEST DUP1 PUSH1 0x40 MSTORE POP POP POP JUMP JUMPDEST PUSH1 0x0 PUSH2 0xA54 PUSH2 0x80C JUMP JUMPDEST SWAP1 POP PUSH2 0xA60 DUP3 DUP3 PUSH2 0xA19 JUMP JUMPDEST SWAP2 SWAP1 POP JUMP JUMPDEST PUSH1 0x0 PUSH8 0xFFFFFFFFFFFFFFFF DUP3 GT ISZERO PUSH2 0xA80 JUMPI PUSH2 0xA7F PUSH2 0x9EA JUMP JUMPDEST JUMPDEST PUSH2 0xA89 DUP3 PUSH2 0x8C9 JUMP JUMPDEST SWAP1 POP PUSH1 0x20 DUP2 ADD SWAP1 POP SWAP2 SWAP1 POP JUMP JUMPDEST DUP3 DUP2 DUP4 CALLDATACOPY PUSH1 0x0 DUP4 DUP4 ADD MSTORE POP POP POP JUMP JUMPDEST PUSH1 0x0 PUSH2 0xAB8 PUSH2 0xAB3 DUP5 PUSH2 0xA65 JUMP JUMPDEST PUSH2 0xA4A JUMP JUMPDEST SWAP1 POP DUP3 DUP2 MSTORE PUSH1 0x20 DUP2 ADD DUP5 DUP5 DUP5 ADD GT ISZERO PUSH2 0xAD4 JUMPI PUSH2 0xAD3 PUSH2 0x9E5 JUMP JUMPDEST JUMPDEST PUSH2 0xADF DUP5 DUP3 DUP6 PUSH2 0xA96 JUMP JUMPDEST POP SWAP4 SWAP3 POP POP POP JUMP JUMPDEST PUSH1 0x0 DUP3 PUSH1 0x1F DUP4 ADD SLT PUSH2 0xAFC JUMPI PUSH2 0xAFB PUSH2 0x9E0 JUMP JUMPDEST JUMPDEST DUP2 CALLDATALOAD PUSH2 0xB0C DUP5 DUP3 PUSH1 0x20 DUP7 ADD PUSH2 0xAA5 JUMP JUMPDEST SWAP2 POP POP SWAP3 SWAP2 POP POP JUMP JUMPDEST PUSH1 0x0 DUP1 PUSH1 0x0 DUP1 PUSH1 0x0 PUSH1 0xA0 DUP7 DUP9 SUB SLT ISZERO PUSH2 0xB31 JUMPI PUSH2 0xB30 PUSH2 0x816 JUMP JUMPDEST JUMPDEST PUSH1 0x0 DUP7 ADD CALLDATALOAD PUSH8 0xFFFFFFFFFFFFFFFF DUP2 GT ISZERO PUSH2 0xB4F JUMPI PUSH2 0xB4E PUSH2 0x81B JUMP JUMPDEST JUMPDEST PUSH2 0xB5B DUP9 DUP3 DUP10 ADD PUSH2 0xAE7 JUMP JUMPDEST SWAP6 POP POP PUSH1 0x20 DUP7 ADD CALLDATALOAD PUSH8 0xFFFFFFFFFFFFFFFF DUP2 GT ISZERO PUSH2 0xB7C JUMPI PUSH2 0xB7B PUSH2 0x81B JUMP JUMPDEST JUMPDEST PUSH2 0xB88 DUP9 DUP3 DUP10 ADD PUSH2 0xAE7 JUMP JUMPDEST SWAP5 POP POP PUSH1 0x40 PUSH2 0xB99 DUP9 DUP3 DUP10 ADD PUSH2 0x841 JUMP JUMPDEST SWAP4 POP POP PUSH1 0x60 PUSH2 0xBAA DUP9 DUP3 DUP10 ADD PUSH2 0x841 JUMP JUMPDEST SWAP3 POP POP PUSH1 0x80 PUSH2 0xBBB DUP9 DUP3 DUP10 ADD PUSH2 0x841 JUMP JUMPDEST SWAP2 POP POP SWAP3 SWAP6 POP SWAP3 SWAP6 SWAP1 SWAP4 POP JUMP JUMPDEST PUSH1 0x0 DUP2 ISZERO ISZERO SWAP1 POP SWAP2 SWAP1 POP JUMP JUMPDEST PUSH2 0xBDD DUP2 PUSH2 0xBC8 JUMP JUMPDEST DUP3 MSTORE POP POP JUMP JUMPDEST PUSH1 0x0 PUSH1 0x60 DUP3 ADD SWAP1 POP PUSH2 0xBF8 PUSH1 0x0 DUP4 ADD DUP7 PUSH2 0x913 JUMP JUMPDEST PUSH2 0xC05 PUSH1 0x20 DUP4 ADD DUP6 PUSH2 0x954 JUMP JUMPDEST PUSH2 0xC12 PUSH1 0x40 DUP4 ADD DUP5 PUSH2 0xBD4 JUMP JUMPDEST SWAP5 SWAP4 POP POP POP POP JUMP JUMPDEST PUSH1 0x0 PUSH1 0x20 DUP3 ADD SWAP1 POP PUSH2 0xC2F PUSH1 0x0 DUP4 ADD DUP5 PUSH2 0x913 JUMP JUMPDEST SWAP3 SWAP2 POP POP JUMP JUMPDEST PUSH2 0xC3E DUP2 PUSH2 0x942 JUMP JUMPDEST DUP2 EQ PUSH2 0xC49 JUMPI PUSH1 0x0 DUP1 REVERT JUMPDEST POP JUMP JUMPDEST PUSH1 0x0 DUP2 CALLDATALOAD SWAP1 POP PUSH2 0xC5B DUP2 PUSH2 0xC35 JUMP JUMPDEST SWAP3 SWAP2 POP POP JUMP JUMPDEST PUSH1 0x0 DUP1 PUSH1 0x40 DUP4 DUP6 SUB SLT ISZERO PUSH2 0xC78 JUMPI PUSH2 0xC77 PUSH2 0x816 JUMP JUMPDEST JUMPDEST PUSH1 0x0 PUSH2 0xC86 DUP6 DUP3 DUP7 ADD PUSH2 0xC4C JUMP JUMPDEST SWAP3 POP POP PUSH1 0x20 PUSH2 0xC97 DUP6 DUP3 DUP7 ADD PUSH2 0x841 JUMP JUMPDEST SWAP2 POP POP SWAP3 POP SWAP3 SWAP1 POP JUMP JUMPDEST PUSH32 0x4E487B7100000000000000000000000000000000000000000000000000000000 PUSH1 0x0 MSTORE PUSH1 0x22 PUSH1 0x4 MSTORE PUSH1 0x24 PUSH1 0x0 REVERT JUMPDEST PUSH1 0x0 PUSH1 0x2 DUP3 DIV SWAP1 POP PUSH1 0x1 DUP3 AND DUP1 PUSH2 0xCE8 JUMPI PUSH1 0x7F DUP3 AND SWAP2 POP JUMPDEST PUSH1 0x20 DUP3 LT DUP2 SUB PUSH2 0xCFB JUMPI PUSH2 0xCFA PUSH2 0xCA1 JUMP JUMPDEST JUMPDEST POP SWAP2 SWAP1 POP JUMP JUMPDEST PUSH32 0x42726F6A20756C617A6E696361206D6F726120626974692076656369206F6420 PUSH1 0x0 DUP3 ADD MSTORE PUSH32 0x302E000000000000000000000000000000000000000000000000000000000000 PUSH1 0x20 DUP3 ADD MSTORE POP JUMP JUMPDEST PUSH1 0x0 PUSH2 0xD5D PUSH1 0x22 DUP4 PUSH2 0x88E JUMP JUMPDEST SWAP2 POP PUSH2 0xD68 DUP3 PUSH2 0xD01 JUMP JUMPDEST PUSH1 0x40 DUP3 ADD SWAP1 POP SWAP2 SWAP1 POP JUMP JUMPDEST PUSH1 0x0 PUSH1 0x20 DUP3 ADD SWAP1 POP DUP2 DUP2 SUB PUSH1 0x0 DUP4 ADD MSTORE PUSH2 0xD8C DUP2 PUSH2 0xD50 JUMP JUMPDEST SWAP1 POP SWAP2 SWAP1 POP JUMP JUMPDEST PUSH32 0x43696A656E6120756C617A6E696365206D6F726120626974692076656361206F PUSH1 0x0 DUP3 ADD MSTORE PUSH32 0x6420302E00000000000000000000000000000000000000000000000000000000 PUSH1 0x20 DUP3 ADD MSTORE POP JUMP JUMPDEST PUSH1 0x0 PUSH2 0xDEF PUSH1 0x24 DUP4 PUSH2 0x88E JUMP JUMPDEST SWAP2 POP PUSH2 0xDFA DUP3 PUSH2 0xD93 JUMP JUMPDEST PUSH1 0x40 DUP3 ADD SWAP1 POP SWAP2 SWAP1 POP JUMP JUMPDEST PUSH1 0x0 PUSH1 0x20 DUP3 ADD SWAP1 POP DUP2 DUP2 SUB PUSH1 0x0 DUP4 ADD MSTORE PUSH2 0xE1E DUP2 PUSH2 0xDE2 JUMP JUMPDEST SWAP1 POP SWAP2 SWAP1 POP JUMP JUMPDEST PUSH1 0x0 DUP2 SWAP1 POP DUP2 PUSH1 0x0 MSTORE PUSH1 0x20 PUSH1 0x0 KECCAK256 SWAP1 POP SWAP2 SWAP1 POP JUMP JUMPDEST PUSH1 0x0 PUSH1 0x20 PUSH1 0x1F DUP4 ADD DIV SWAP1 POP SWAP2 SWAP1 POP JUMP JUMPDEST PUSH1 0x0 DUP3 DUP3 SHL SWAP1 POP SWAP3 SWAP2 POP POP JUMP JUMPDEST PUSH1 0x0 PUSH1 0x8 DUP4 MUL PUSH2 0xE87 PUSH32 0xFFFFFFFFFFFFFFFFFFFFFFFFFFFFFFFFFFFFFFFFFFFFFFFFFFFFFFFFFFFFFFFF DUP3 PUSH2 0xE4A JUMP JUMPDEST PUSH2 0xE91 DUP7 DUP4 PUSH2 0xE4A JUMP JUMPDEST SWAP6 POP DUP1 NOT DUP5 AND SWAP4 POP DUP1 DUP7 AND DUP5 OR SWAP3 POP POP POP SWAP4 SWAP3 POP POP POP JUMP JUMPDEST PUSH1 0x0 DUP2 SWAP1 POP SWAP2 SWAP1 POP JUMP JUMPDEST PUSH1 0x0 PUSH2 0xECE PUSH2 0xEC9 PUSH2 0xEC4 DUP5 PUSH2 0x820 JUMP JUMPDEST PUSH2 0xEA9 JUMP JUMPDEST PUSH2 0x820 JUMP JUMPDEST SWAP1 POP SWAP2 SWAP1 POP JUMP JUMPDEST PUSH1 0x0 DUP2 SWAP1 POP SWAP2 SWAP1 POP JUMP JUMPDEST PUSH2 0xEE8 DUP4 PUSH2 0xEB3 JUMP JUMPDEST PUSH2 0xEFC PUSH2 0xEF4 DUP3 PUSH2 0xED5 JUMP JUMPDEST DUP5 DUP5 SLOAD PUSH2 0xE57 JUMP JUMPDEST DUP3 SSTORE POP POP POP POP JUMP JUMPDEST PUSH1 0x0 SWAP1 JUMP JUMPDEST PUSH2 0xF11 PUSH2 0xF04 JUMP JUMPDEST PUSH2 0xF1C DUP2 DUP5 DUP5 PUSH2 0xEDF JUMP JUMPDEST POP POP POP JUMP JUMPDEST JUMPDEST DUP2 DUP2 LT ISZERO PUSH2 0xF40 JUMPI PUSH2 0xF35 PUSH1 0x0 DUP3 PUSH2 0xF09 JUMP JUMPDEST PUSH1 0x1 DUP2 ADD SWAP1 POP PUSH2 0xF22 JUMP JUMPDEST POP POP JUMP JUMPDEST PUSH1 0x1F DUP3 GT ISZERO PUSH2 0xF85 JUMPI PUSH2 0xF56 DUP2 PUSH2 0xE25 JUMP JUMPDEST PUSH2 0xF5F DUP5 PUSH2 0xE3A JUMP JUMPDEST DUP2 ADD PUSH1 0x20 DUP6 LT ISZERO PUSH2 0xF6E JUMPI DUP2 SWAP1 POP JUMPDEST PUSH2 0xF82 PUSH2 0xF7A DUP6 PUSH2 0xE3A JUMP JUMPDEST DUP4 ADD DUP3 PUSH2 0xF21 JUMP JUMPDEST POP POP JUMPDEST POP POP POP JUMP JUMPDEST PUSH1 0x0 DUP3 DUP3 SHR SWAP1 POP SWAP3 SWAP2 POP POP JUMP JUMPDEST PUSH1 0x0 PUSH2 0xFA8 PUSH1 0x0 NOT DUP5 PUSH1 0x8 MUL PUSH2 0xF8A JUMP JUMPDEST NOT DUP1 DUP4 AND SWAP2 POP POP SWAP3 SWAP2 POP POP JUMP JUMPDEST PUSH1 0x0 PUSH2 0xFC1 DUP4 DUP4 PUSH2 0xF97 JUMP JUMPDEST SWAP2 POP DUP3 PUSH1 0x2 MUL DUP3 OR SWAP1 POP SWAP3 SWAP2 POP POP JUMP JUMPDEST PUSH2 0xFDA DUP3 PUSH2 0x883 JUMP JUMPDEST PUSH8 0xFFFFFFFFFFFFFFFF DUP2 GT ISZERO PUSH2 0xFF3 JUMPI PUSH2 0xFF2 PUSH2 0x9EA JUMP JUMPDEST JUMPDEST PUSH2 0xFFD DUP3 SLOAD PUSH2 0xCD0 JUMP JUMPDEST PUSH2 0x1008 DUP3 DUP3 DUP6 PUSH2 0xF44 JUMP JUMPDEST PUSH1 0x0 PUSH1 0x20 SWAP1 POP PUSH1 0x1F DUP4 GT PUSH1 0x1 DUP2 EQ PUSH2 0x103B JUMPI PUSH1 0x0 DUP5 ISZERO PUSH2 0x1029 JUMPI DUP3 DUP8 ADD MLOAD SWAP1 POP JUMPDEST PUSH2 0x1033 DUP6 DUP3 PUSH2 0xFB5 JUMP JUMPDEST DUP7 SSTORE POP PUSH2 0x109B JUMP JUMPDEST PUSH1 0x1F NOT DUP5 AND PUSH2 0x1049 DUP7 PUSH2 0xE25 JUMP JUMPDEST PUSH1 0x0 JUMPDEST DUP3 DUP2 LT ISZERO PUSH2 0x1071 JUMPI DUP5 DUP10 ADD MLOAD DUP3 SSTORE PUSH1 0x1 DUP3 ADD SWAP2 POP PUSH1 0x20 DUP6 ADD SWAP5 POP PUSH1 0x20 DUP2 ADD SWAP1 POP PUSH2 0x104C JUMP JUMPDEST DUP7 DUP4 LT ISZERO PUSH2 0x108E JUMPI DUP5 DUP10 ADD MLOAD PUSH2 0x108A PUSH1 0x1F DUP10 AND DUP3 PUSH2 0xF97 JUMP JUMPDEST DUP4 SSTORE POP JUMPDEST PUSH1 0x1 PUSH1 0x2 DUP9 MUL ADD DUP9 SSTORE POP POP POP JUMPDEST POP POP POP POP POP POP JUMP JUMPDEST PUSH32 0x4E487B7100000000000000000000000000000000000000000000000000000000 PUSH1 0x0 MSTORE PUSH1 0x11 PUSH1 0x4 MSTORE PUSH1 0x24 PUSH1 0x0 REVERT JUMPDEST PUSH1 0x0 PUSH2 0x10DD DUP3 PUSH2 0x820 JUMP JUMPDEST SWAP2 POP PUSH32 0xFFFFFFFFFFFFFFFFFFFFFFFFFFFFFFFFFFFFFFFFFFFFFFFFFFFFFFFFFFFFFFFF DUP3 SUB PUSH2 0x110F JUMPI PUSH2 0x110E PUSH2 0x10A3 JUMP JUMPDEST JUMPDEST PUSH1 0x1 DUP3 ADD SWAP1 POP SWAP2 SWAP1 POP JUMP JUMPDEST PUSH32 0x4576656E74206E6520706F73746F6A692E000000000000000000000000000000 PUSH1 0x0 DUP3 ADD MSTORE POP JUMP JUMPDEST PUSH1 0x0 PUSH2 0x1150 PUSH1 0x11 DUP4 PUSH2 0x88E JUMP JUMPDEST SWAP2 POP PUSH2 0x115B DUP3 PUSH2 0x111A JUMP JUMPDEST PUSH1 0x20 DUP3 ADD SWAP1 POP SWAP2 SWAP1 POP JUMP JUMPDEST PUSH1 0x0 PUSH1 0x20 DUP3 ADD SWAP1 POP DUP2 DUP2 SUB PUSH1 0x0 DUP4 ADD MSTORE PUSH2 0x117F DUP2 PUSH2 0x1143 JUMP JUMPDEST SWAP1 POP SWAP2 SWAP1 POP JUMP JUMPDEST PUSH32 0x4E656D6120646F737475706E696820756C617A6E6963612E0000000000000000 PUSH1 0x0 DUP3 ADD MSTORE POP JUMP JUMPDEST PUSH1 0x0 PUSH2 0x11BC PUSH1 0x18 DUP4 PUSH2 0x88E JUMP JUMPDEST SWAP2 POP PUSH2 0x11C7 DUP3 PUSH2 0x1186 JUMP JUMPDEST PUSH1 0x20 DUP3 ADD SWAP1 POP SWAP2 SWAP1 POP JUMP JUMPDEST PUSH1 0x0 PUSH1 0x20 DUP3 ADD SWAP1 POP DUP2 DUP2 SUB PUSH1 0x0 DUP4 ADD MSTORE PUSH2 0x11EB DUP2 PUSH2 0x11AF JUMP JUMPDEST SWAP1 POP SWAP2 SWAP1 POP JUMP JUMPDEST PUSH32 0x506F677265736E612063696A656E6120756C617A6E6963652E00000000000000 PUSH1 0x0 DUP3 ADD MSTORE POP JUMP JUMPDEST PUSH1 0x0 PUSH2 0x1228 PUSH1 0x19 DUP4 PUSH2 0x88E JUMP JUMPDEST SWAP2 POP PUSH2 0x1233 DUP3 PUSH2 0x11F2 JUMP JUMPDEST PUSH1 0x20 DUP3 ADD SWAP1 POP SWAP2 SWAP1 POP JUMP JUMPDEST PUSH1 0x0 PUSH1 0x20 DUP3 ADD SWAP1 POP DUP2 DUP2 SUB PUSH1 0x0 DUP4 ADD MSTORE PUSH2 0x1257 DUP2 PUSH2 0x121B JUMP JUMPDEST SWAP1 POP SWAP2 SWAP1 POP JUMP INVALID LOG2 PUSH5 0x6970667358 0x22 SLT KECCAK256 0x4B 0xDD XOR 0xF CALLDATASIZE PC 0xEA MLOAD 0x25 0x2A EQ 0xF6 CODECOPY 0xBF JUMP 0xEA 0xAE LOG3 PUSH16 0x5241FBB9B9ED18D1AE5ACEC9E864736F PUSH13 0x63430008140033000000000000 "
				},
				"gasEstimates": {
					"creation": {
						"codeDepositCost": "951200",
						"executionCost": "45200",
						"totalCost": "996400"
					},
					"external": {
						"buyTicket(uint256)": "infinite",
						"createEvent(string,string,uint256,uint256,uint256)": "infinite",
						"events(uint256)": "infinite",
						"nextEventId()": "2473",
						"nextTicketId()": "2429",
						"ownerTickets(address,uint256)": "infinite",
						"tickets(uint256)": "infinite"
					}
				},
				"methodIdentifiers": {
					"buyTicket(uint256)": "67dd74ca",
					"createEvent(string,string,uint256,uint256,uint256)": "3c2fc56c",
					"events(uint256)": "0b791430",
					"nextEventId()": "9f9d903a",
					"nextTicketId()": "6031a52f",
					"ownerTickets(address,uint256)": "f0ab716b",
					"tickets(uint256)": "50b44712"
				}
			},
			"storageLayout": {
				"storage": [
					{
						"astId": 28,
						"contract": "contracts/TicketingSystem.sol:TicketingSystem",
						"label": "events",
						"offset": 0,
						"slot": "0",
						"type": "t_mapping(t_uint256,t_struct(Event)16_storage)"
					},
					{
						"astId": 33,
						"contract": "contracts/TicketingSystem.sol:TicketingSystem",
						"label": "tickets",
						"offset": 0,
						"slot": "1",
						"type": "t_mapping(t_uint256,t_struct(Ticket)23_storage)"
					},
					{
						"astId": 38,
						"contract": "contracts/TicketingSystem.sol:TicketingSystem",
						"label": "ownerTickets",
						"offset": 0,
						"slot": "2",
						"type": "t_mapping(t_address,t_array(t_uint256)dyn_storage)"
					},
					{
						"astId": 41,
						"contract": "contracts/TicketingSystem.sol:TicketingSystem",
						"label": "nextEventId",
						"offset": 0,
						"slot": "3",
						"type": "t_uint256"
					},
					{
						"astId": 44,
						"contract": "contracts/TicketingSystem.sol:TicketingSystem",
						"label": "nextTicketId",
						"offset": 0,
						"slot": "4",
						"type": "t_uint256"
					}
				],
				"types": {
					"t_address": {
						"encoding": "inplace",
						"label": "address",
						"numberOfBytes": "20"
					},
					"t_array(t_uint256)dyn_storage": {
						"base": "t_uint256",
						"encoding": "dynamic_array",
						"label": "uint256[]",
						"numberOfBytes": "32"
					},
					"t_bool": {
						"encoding": "inplace",
						"label": "bool",
						"numberOfBytes": "1"
					},
					"t_mapping(t_address,t_array(t_uint256)dyn_storage)": {
						"encoding": "mapping",
						"key": "t_address",
						"label": "mapping(address => uint256[])",
						"numberOfBytes": "32",
						"value": "t_array(t_uint256)dyn_storage"
					},
					"t_mapping(t_uint256,t_struct(Event)16_storage)": {
						"encoding": "mapping",
						"key": "t_uint256",
						"label": "mapping(uint256 => struct TicketingSystem.Event)",
						"numberOfBytes": "32",
						"value": "t_struct(Event)16_storage"
					},
					"t_mapping(t_uint256,t_struct(Ticket)23_storage)": {
						"encoding": "mapping",
						"key": "t_uint256",
						"label": "mapping(uint256 => struct TicketingSystem.Ticket)",
						"numberOfBytes": "32",
						"value": "t_struct(Ticket)23_storage"
					},
					"t_string_storage": {
						"encoding": "bytes",
						"label": "string",
						"numberOfBytes": "32"
					},
					"t_struct(Event)16_storage": {
						"encoding": "inplace",
						"label": "struct TicketingSystem.Event",
						"members": [
							{
								"astId": 3,
								"contract": "contracts/TicketingSystem.sol:TicketingSystem",
								"label": "eventName",
								"offset": 0,
								"slot": "0",
								"type": "t_string_storage"
							},
							{
								"astId": 5,
								"contract": "contracts/TicketingSystem.sol:TicketingSystem",
								"label": "eventLocation",
								"offset": 0,
								"slot": "1",
								"type": "t_string_storage"
							},
							{
								"astId": 7,
								"contract": "contracts/TicketingSystem.sol:TicketingSystem",
								"label": "eventDate",
								"offset": 0,
								"slot": "2",
								"type": "t_uint256"
							},
							{
								"astId": 9,
								"contract": "contracts/TicketingSystem.sol:TicketingSystem",
								"label": "maxTickets",
								"offset": 0,
								"slot": "3",
								"type": "t_uint256"
							},
							{
								"astId": 11,
								"contract": "contracts/TicketingSystem.sol:TicketingSystem",
								"label": "ticketPrice",
								"offset": 0,
								"slot": "4",
								"type": "t_uint256"
							},
							{
								"astId": 13,
								"contract": "contracts/TicketingSystem.sol:TicketingSystem",
								"label": "eventOwner",
								"offset": 0,
								"slot": "5",
								"type": "t_address"
							},
							{
								"astId": 15,
								"contract": "contracts/TicketingSystem.sol:TicketingSystem",
								"label": "ticketsSold",
								"offset": 0,
								"slot": "6",
								"type": "t_uint256"
							}
						],
						"numberOfBytes": "224"
					},
					"t_struct(Ticket)23_storage": {
						"encoding": "inplace",
						"label": "struct TicketingSystem.Ticket",
						"members": [
							{
								"astId": 18,
								"contract": "contracts/TicketingSystem.sol:TicketingSystem",
								"label": "ticketId",
								"offset": 0,
								"slot": "0",
								"type": "t_uint256"
							},
							{
								"astId": 20,
								"contract": "contracts/TicketingSystem.sol:TicketingSystem",
								"label": "owner",
								"offset": 0,
								"slot": "1",
								"type": "t_address"
							},
							{
								"astId": 22,
								"contract": "contracts/TicketingSystem.sol:TicketingSystem",
								"label": "isForSale",
								"offset": 20,
								"slot": "1",
								"type": "t_bool"
							}
						],
						"numberOfBytes": "64"
					},
					"t_uint256": {
						"encoding": "inplace",
						"label": "uint256",
						"numberOfBytes": "32"
					}
				}
			},
			"userdoc": {
				"kind": "user",
				"methods": {},
				"version": 1
			}
		}
	}
}